ARM GAS  C:\Users\Zoltan\AppData\Local\Temp\ccuWN641.s 			page 1


   1              		.syntax unified
   2              		.cpu cortex-m0
   3              		.fpu softvfp
   4              		.eabi_attribute 20, 1
   5              		.eabi_attribute 21, 1
   6              		.eabi_attribute 23, 3
   7              		.eabi_attribute 24, 1
   8              		.eabi_attribute 25, 1
   9              		.eabi_attribute 26, 1
  10              		.eabi_attribute 30, 4
  11              		.eabi_attribute 34, 0
  12              		.eabi_attribute 18, 4
  13              		.thumb
  14              		.syntax unified
  15              		.file	"KWJ_Smpl.c"
  16              		.text
  17              	.Ltext0:
  18              		.cfi_sections	.debug_frame
  19              		.section	.text.SampleAll,"ax",%progbits
  20              		.align	1
  21              		.global	SampleAll
  22              		.code	16
  23              		.thumb_func
  24              		.type	SampleAll, %function
  25              	SampleAll:
  26              	.LFB63:
  27              		.file 1 "KWJ_Smpl.c"
   1:KWJ_Smpl.c    **** /* ========================================
   2:KWJ_Smpl.c    ****  * File Name: KWJ_Smpl.c
   3:KWJ_Smpl.c    ****  *
   4:KWJ_Smpl.c    ****  * Version: 1.0
   5:KWJ_Smpl.c    ****  *
   6:KWJ_Smpl.c    ****  * Description:
   7:KWJ_Smpl.c    ****  * This file implements the Sensor Sampling Activities
   8:KWJ_Smpl.c    ****  *
   9:KWJ_Smpl.c    ****  * Hardware Dependency:
  10:KWJ_Smpl.c    ****  * CYBLE-014008
  11:KWJ_Smpl.c    ****  *
  12:KWJ_Smpl.c    ****  * Copyright ODI, 2016
  13:KWJ_Smpl.c    ****  * All Rights Reserved
  14:KWJ_Smpl.c    ****  * UNPUBLISHED, LICENSED SOFTWARE.
  15:KWJ_Smpl.c    ****  *
  16:KWJ_Smpl.c    ****  * CONFIDENTIAL AND PROPRIETARY INFORMATION
  17:KWJ_Smpl.c    ****  * WHICH IS THE PROPERTY OF ODI.
  18:KWJ_Smpl.c    ****  * RCRegna - Author
  19:KWJ_Smpl.c    ****  * ========================================
  20:KWJ_Smpl.c    **** */
  21:KWJ_Smpl.c    **** /*****************************************************************************
  22:KWJ_Smpl.c    **** * Included headers
  23:KWJ_Smpl.c    **** *****************************************************************************/
  24:KWJ_Smpl.c    **** #include <project.h>
  25:KWJ_Smpl.c    **** #include "main.h"
  26:KWJ_Smpl.c    **** 
  27:KWJ_Smpl.c    **** /*******************************************************************************
  28:KWJ_Smpl.c    **** * Function Name: SampleAll
  29:KWJ_Smpl.c    **** ********************************************************************************
  30:KWJ_Smpl.c    **** * Summary:
ARM GAS  C:\Users\Zoltan\AppData\Local\Temp\ccuWN641.s 			page 2


  31:KWJ_Smpl.c    **** *  The measurement handler for WDT wakeup
  32:KWJ_Smpl.c    **** *  Makes a CO reading
  33:KWJ_Smpl.c    **** *  Set LED and Buzzer Mode Based on Alert Level
  34:KWJ_Smpl.c    **** *
  35:KWJ_Smpl.c    **** * Parameters:
  36:KWJ_Smpl.c    **** *  None
  37:KWJ_Smpl.c    **** *
  38:KWJ_Smpl.c    **** * Return:
  39:KWJ_Smpl.c    **** *  None
  40:KWJ_Smpl.c    **** *
  41:KWJ_Smpl.c    **** *******************************************************************************/
  42:KWJ_Smpl.c    **** void SampleAll(void)
  43:KWJ_Smpl.c    **** {
  28              		.loc 1 43 0
  29              		.cfi_startproc
  30              		@ args = 0, pretend = 0, frame = 0
  31              		@ frame_needed = 0, uses_anonymous_args = 0
  32 0000 70B5     		push	{r4, r5, r6, lr}
  33              		.cfi_def_cfa_offset 16
  34              		.cfi_offset 4, -16
  35              		.cfi_offset 5, -12
  36              		.cfi_offset 6, -8
  37              		.cfi_offset 14, -4
  44:KWJ_Smpl.c    **** //    rstFlag(WAKEUP_SOURCE_WDT);
  45:KWJ_Smpl.c    ****     if(chkFlag(MEASUREMENT_INTERVAL))
  38              		.loc 1 45 0
  39 0002 0220     		movs	r0, #2
  40 0004 FFF7FEFF 		bl	chkFlag
  41              	.LVL0:
  42 0008 3C4C     		ldr	r4, .L20
  43 000a 0028     		cmp	r0, #0
  44 000c 39D0     		beq	.L3
  46:KWJ_Smpl.c    ****     {
  47:KWJ_Smpl.c    ****         CyDelay(10u); // Provide 10mS settling
  45              		.loc 1 47 0
  46 000e 0A20     		movs	r0, #10
  47 0010 FFF7FEFF 		bl	CyDelay
  48              	.LVL1:
  48:KWJ_Smpl.c    ****         alert = GOOD;
  49              		.loc 1 48 0
  50 0014 0023     		movs	r3, #0
  49:KWJ_Smpl.c    ****         setInterval(SYS_TIME_FAST);
  51              		.loc 1 49 0
  52 0016 0F20     		movs	r0, #15
  48:KWJ_Smpl.c    ****         alert = GOOD;
  53              		.loc 1 48 0
  54 0018 2370     		strb	r3, [r4]
  55              		.loc 1 49 0
  56 001a FFF7FEFF 		bl	setInterval
  57              	.LVL2:
  50:KWJ_Smpl.c    ****         Make_T_Measurement();
  58              		.loc 1 50 0
  59 001e FFF7FEFF 		bl	Make_T_Measurement
  60              	.LVL3:
  51:KWJ_Smpl.c    ****         Make_RH_Measurement();
  61              		.loc 1 51 0
  62 0022 FFF7FEFF 		bl	Make_RH_Measurement
ARM GAS  C:\Users\Zoltan\AppData\Local\Temp\ccuWN641.s 			page 3


  63              	.LVL4:
  52:KWJ_Smpl.c    ****         Make_CO_Measurement();
  64              		.loc 1 52 0
  65 0026 FFF7FEFF 		bl	Make_CO_Measurement
  66              	.LVL5:
  53:KWJ_Smpl.c    **** #      ifdef O3_OPTION
  54:KWJ_Smpl.c    ****         Make_O3_Measurement();
  55:KWJ_Smpl.c    **** #      endif
  56:KWJ_Smpl.c    ****         Make_P_Measurement();
  67              		.loc 1 56 0
  68 002a FFF7FEFF 		bl	Make_P_Measurement
  69              	.LVL6:
  57:KWJ_Smpl.c    ****         Make_BAT_Measurement();
  70              		.loc 1 57 0
  71 002e FFF7FEFF 		bl	Make_BAT_Measurement
  72              	.LVL7:
  58:KWJ_Smpl.c    ****         rstFlag(OP_WARMUP);
  73              		.loc 1 58 0
  74 0032 8020     		movs	r0, #128
  75 0034 C004     		lsls	r0, r0, #19
  76 0036 FFF7FEFF 		bl	rstFlag
  77              	.LVL8:
  59:KWJ_Smpl.c    ****         rstFlag(ALERT_HAZARDOUS);
  78              		.loc 1 59 0
  79 003a 8020     		movs	r0, #128
  80 003c 4005     		lsls	r0, r0, #21
  81 003e FFF7FEFF 		bl	rstFlag
  82              	.LVL9:
  60:KWJ_Smpl.c    ****         if(NOW_DB.CO_MEAS >= CO_MOD
  83              		.loc 1 60 0
  84 0042 2F4B     		ldr	r3, .L20+4
  85 0044 0022     		movs	r2, #0
  86 0046 9B5E     		ldrsh	r3, [r3, r2]
  87 0048 2E4A     		ldr	r2, .L20+8
  88 004a 1288     		ldrh	r2, [r2]
  89 004c 9342     		cmp	r3, r2
  90 004e 01DB     		blt	.L4
  61:KWJ_Smpl.c    **** #      ifdef O3_OPTION
  62:KWJ_Smpl.c    ****             || NOW_DB.O3_MEAS >= O3_MOD
  63:KWJ_Smpl.c    **** #      endif
  64:KWJ_Smpl.c    ****             )
  65:KWJ_Smpl.c    ****             alert = MODERATE;
  91              		.loc 1 65 0
  92 0050 0122     		movs	r2, #1
  93 0052 2270     		strb	r2, [r4]
  94              	.L4:
  66:KWJ_Smpl.c    ****         if(NOW_DB.CO_MEAS >= CO_UNH
  95              		.loc 1 66 0
  96 0054 2C4A     		ldr	r2, .L20+12
  97 0056 1288     		ldrh	r2, [r2]
  98 0058 9342     		cmp	r3, r2
  99 005a 01DB     		blt	.L5
  67:KWJ_Smpl.c    **** #      ifdef O3_OPTION
  68:KWJ_Smpl.c    ****             || NOW_DB.O3_MEAS >= O3_UNH
  69:KWJ_Smpl.c    **** #      endif
  70:KWJ_Smpl.c    ****             )
  71:KWJ_Smpl.c    ****             alert = UNHEALTHY;
ARM GAS  C:\Users\Zoltan\AppData\Local\Temp\ccuWN641.s 			page 4


 100              		.loc 1 71 0
 101 005c 0222     		movs	r2, #2
 102 005e 2270     		strb	r2, [r4]
 103              	.L5:
  72:KWJ_Smpl.c    ****         if(NOW_DB.CO_MEAS >= CO_HAZ
 104              		.loc 1 72 0
 105 0060 2A4A     		ldr	r2, .L20+16
 106 0062 1288     		ldrh	r2, [r2]
 107 0064 9342     		cmp	r3, r2
 108 0066 05DB     		blt	.L6
  73:KWJ_Smpl.c    **** #      ifdef O3_OPTION
  74:KWJ_Smpl.c    ****             || NOW_DB.O3_MEAS >= O3_HAZ
  75:KWJ_Smpl.c    **** #      endif
  76:KWJ_Smpl.c    ****             )
  77:KWJ_Smpl.c    ****         {
  78:KWJ_Smpl.c    ****             alert = HAZARDOUS;
  79:KWJ_Smpl.c    ****             setFlag( ALERT_HAZARDOUS);
 109              		.loc 1 79 0
 110 0068 8020     		movs	r0, #128
  78:KWJ_Smpl.c    ****             setFlag( ALERT_HAZARDOUS);
 111              		.loc 1 78 0
 112 006a 0323     		movs	r3, #3
 113              		.loc 1 79 0
 114 006c 4005     		lsls	r0, r0, #21
  78:KWJ_Smpl.c    ****             setFlag( ALERT_HAZARDOUS);
 115              		.loc 1 78 0
 116 006e 2370     		strb	r3, [r4]
 117              		.loc 1 79 0
 118 0070 FFF7FEFF 		bl	setFlag
 119              	.LVL10:
 120              	.L6:
  80:KWJ_Smpl.c    ****         }
  81:KWJ_Smpl.c    ****         if(alert == GOOD)
 121              		.loc 1 81 0
 122 0074 2278     		ldrb	r2, [r4]
 123 0076 002A     		cmp	r2, #0
 124 0078 03D1     		bne	.L3
  82:KWJ_Smpl.c    ****             HandleLED(GRN_LED, LED_FLASH, false); //not to spec
 125              		.loc 1 82 0
 126 007a 1421     		movs	r1, #20
 127 007c 0120     		movs	r0, #1
 128 007e FFF7FEFF 		bl	HandleLED
 129              	.LVL11:
 130              	.L3:
  83:KWJ_Smpl.c    **** 
  84:KWJ_Smpl.c    ****     }
  85:KWJ_Smpl.c    ****     if(chkFlag(ENABLE_LOGGING))
 131              		.loc 1 85 0
 132 0082 8020     		movs	r0, #128
 133 0084 4000     		lsls	r0, r0, #1
 134 0086 FFF7FEFF 		bl	chkFlag
 135              	.LVL12:
 136 008a 0028     		cmp	r0, #0
 137 008c 05D0     		beq	.L8
  86:KWJ_Smpl.c    ****     {
  87:KWJ_Smpl.c    ****         rstFlag(ENABLE_LOGGING);
 138              		.loc 1 87 0
ARM GAS  C:\Users\Zoltan\AppData\Local\Temp\ccuWN641.s 			page 5


 139 008e 8020     		movs	r0, #128
 140 0090 4000     		lsls	r0, r0, #1
 141 0092 FFF7FEFF 		bl	rstFlag
 142              	.LVL13:
  88:KWJ_Smpl.c    ****         LogMeas();
 143              		.loc 1 88 0
 144 0096 FFF7FEFF 		bl	LogMeas
 145              	.LVL14:
 146              	.L8:
  89:KWJ_Smpl.c    ****     }
  90:KWJ_Smpl.c    ****     /* Reload LED & BZR status each WDT cycle (1 sec) */
  91:KWJ_Smpl.c    ****     switch(alert)
 147              		.loc 1 91 0
 148 009a 2478     		ldrb	r4, [r4]
 149 009c 022C     		cmp	r4, #2
 150 009e 07D0     		beq	.L10
 151 00a0 032C     		cmp	r4, #3
 152 00a2 10D0     		beq	.L11
 153 00a4 012C     		cmp	r4, #1
 154 00a6 28D1     		bne	.L1
  92:KWJ_Smpl.c    ****     {
  93:KWJ_Smpl.c    ****     case GOOD:
  94:KWJ_Smpl.c    **** #      ifndef KWJ_TEST
  95:KWJ_Smpl.c    **** //        setInterval(SYS_TIME_NORM);
  96:KWJ_Smpl.c    **** #      endif
  97:KWJ_Smpl.c    ****         break;
  98:KWJ_Smpl.c    ****     case MODERATE:
  99:KWJ_Smpl.c    ****         HandleLED(ORG_LED, LED_FLASH, false);
 155              		.loc 1 99 0
 156 00a8 0022     		movs	r2, #0
 157 00aa 1421     		movs	r1, #20
 158 00ac 0220     		movs	r0, #2
 159 00ae 22E0     		b	.L17
 160              	.L10:
 100:KWJ_Smpl.c    ****         break;
 101:KWJ_Smpl.c    ****     case UNHEALTHY:
 102:KWJ_Smpl.c    ****         HandleLED(ORG_LED, LED_BLINK, false);
 161              		.loc 1 102 0
 162 00b0 FA21     		movs	r1, #250
 163 00b2 2000     		movs	r0, r4
 164 00b4 0022     		movs	r2, #0
 165 00b6 4900     		lsls	r1, r1, #1
 166 00b8 FFF7FEFF 		bl	HandleLED
 167              	.LVL15:
 103:KWJ_Smpl.c    ****         HandleBZR(BZR_PEEP, false);
 168              		.loc 1 103 0
 169 00bc 0021     		movs	r1, #0
 170 00be 3220     		movs	r0, #50
 171 00c0 FFF7FEFF 		bl	HandleBZR
 172              	.LVL16:
 104:KWJ_Smpl.c    ****         break;
 173              		.loc 1 104 0
 174 00c4 19E0     		b	.L1
 175              	.L11:
 105:KWJ_Smpl.c    ****     case HAZARDOUS:
 106:KWJ_Smpl.c    ****         if(chkFlag(FIVE_MINUTE))
 176              		.loc 1 106 0
ARM GAS  C:\Users\Zoltan\AppData\Local\Temp\ccuWN641.s 			page 6


 177 00c6 8020     		movs	r0, #128
 178 00c8 4002     		lsls	r0, r0, #9
 179 00ca FFF7FEFF 		bl	chkFlag
 180              	.LVL17:
 181 00ce 051E     		subs	r5, r0, #0
 182 00d0 08D0     		beq	.L13
 107:KWJ_Smpl.c    ****         {
 108:KWJ_Smpl.c    ****             HandleBZR(BZR_ON, false);
 183              		.loc 1 108 0
 184 00d2 FA20     		movs	r0, #250
 185 00d4 0021     		movs	r1, #0
 186 00d6 8000     		lsls	r0, r0, #2
 187 00d8 FFF7FEFF 		bl	HandleBZR
 188              	.LVL18:
 109:KWJ_Smpl.c    ****             HandleLED(RED_LED, LED_ON, false);            
 189              		.loc 1 109 0
 190 00dc FA21     		movs	r1, #250
 191 00de 0022     		movs	r2, #0
 192 00e0 8900     		lsls	r1, r1, #2
 193 00e2 07E0     		b	.L18
 194              	.L13:
 110:KWJ_Smpl.c    ****         }
 111:KWJ_Smpl.c    ****         else
 112:KWJ_Smpl.c    ****         {
 113:KWJ_Smpl.c    ****             HandleBZR(BZR_ALERT, false);
 195              		.loc 1 113 0
 196 00e4 0100     		movs	r1, r0
 197 00e6 FA20     		movs	r0, #250
 198 00e8 4000     		lsls	r0, r0, #1
 199 00ea FFF7FEFF 		bl	HandleBZR
 200              	.LVL19:
 114:KWJ_Smpl.c    ****             HandleLED(RED_LED, LED_BLINK, false);            
 201              		.loc 1 114 0
 202 00ee FA21     		movs	r1, #250
 203 00f0 2A00     		movs	r2, r5
 204 00f2 4900     		lsls	r1, r1, #1
 205              	.L18:
 206 00f4 2000     		movs	r0, r4
 207              	.L17:
 208 00f6 FFF7FEFF 		bl	HandleLED
 209              	.LVL20:
 210              	.L1:
 115:KWJ_Smpl.c    ****         }
 116:KWJ_Smpl.c    ****         break;
 117:KWJ_Smpl.c    ****     }
 118:KWJ_Smpl.c    ****     
 119:KWJ_Smpl.c    **** } // SampleAll()
 211              		.loc 1 119 0
 212              		@ sp needed
 213 00fa 70BD     		pop	{r4, r5, r6, pc}
 214              	.L21:
 215              		.align	2
 216              	.L20:
 217 00fc 00000000 		.word	alert
 218 0100 00000000 		.word	NOW_DB
 219 0104 00000000 		.word	CO_MOD
 220 0108 00000000 		.word	CO_UNH
ARM GAS  C:\Users\Zoltan\AppData\Local\Temp\ccuWN641.s 			page 7


 221 010c 00000000 		.word	CO_HAZ
 222              		.cfi_endproc
 223              	.LFE63:
 224              		.size	SampleAll, .-SampleAll
 225              		.comm	NOW_DB,128,4
 226              		.comm	SAV_DB,128,4
 227              		.comm	BAT_CRIT,1,1
 228              		.comm	BAT_LO,1,1
 229              		.comm	O3_HAZ,2,2
 230              		.comm	O3_UNH,2,2
 231              		.comm	O3_MOD,2,2
 232              		.comm	CO_HAZ,2,2
 233              		.comm	CO_UNH,2,2
 234              		.comm	CO_MOD,2,2
 235              		.comm	alert,1,1
 236              		.comm	BFR,128,1
 237              		.comm	P3_INIT,4,4
 238              		.comm	P2_INIT,4,4
 239              		.comm	P1_INIT,4,4
 240              		.comm	P0_INIT,4,4
 241              		.comm	WRM_COUNT,2,2
 242              		.comm	MIN_COUNT,2,2
 243              		.comm	BLE_RETRY,1,1
 244              		.comm	SYSTK_CNT,4,4
 245              		.comm	SOFTWARE,15,1
 246              		.text
 247              	.Letext0:
 248              		.file 2 "Generated_Source\\PSoC4/cytypes.h"
 249              		.file 3 "Generated_Source\\PSoC4/BLE_Stack.h"
 250              		.file 4 "Generated_Source\\PSoC4/BLE_dis.h"
 251              		.file 5 "Generated_Source\\PSoC4/BLE_ess.h"
 252              		.file 6 "main.h"
 253              		.file 7 "Generated_Source\\PSoC4/CyLib.h"
