ARM GAS  C:\Users\Zoltan\AppData\Local\Temp\ccKukJBo.s 			page 1


   1              		.syntax unified
   2              		.cpu cortex-m0
   3              		.fpu softvfp
   4              		.eabi_attribute 20, 1
   5              		.eabi_attribute 21, 1
   6              		.eabi_attribute 23, 3
   7              		.eabi_attribute 24, 1
   8              		.eabi_attribute 25, 1
   9              		.eabi_attribute 26, 1
  10              		.eabi_attribute 30, 4
  11              		.eabi_attribute 34, 0
  12              		.eabi_attribute 18, 4
  13              		.thumb
  14              		.syntax unified
  15              		.file	"KWJ_Custom.c"
  16              		.text
  17              	.Ltext0:
  18              		.cfi_sections	.debug_frame
  19              		.section	.text.rtnLong,"ax",%progbits
  20              		.align	1
  21              		.global	rtnLong
  22              		.code	16
  23              		.thumb_func
  24              		.type	rtnLong, %function
  25              	rtnLong:
  26              	.LFB63:
  27              		.file 1 "KWJ_Custom.c"
   1:KWJ_Custom.c  **** /* ========================================
   2:KWJ_Custom.c  ****  * File Name: KWJ_Custom.c
   3:KWJ_Custom.c  ****  *
   4:KWJ_Custom.c  ****  * Version: 1.0
   5:KWJ_Custom.c  ****  *
   6:KWJ_Custom.c  ****  * Description:
   7:KWJ_Custom.c  ****  * This file implements the BLE service for KWJ Custom Commands
   8:KWJ_Custom.c  ****  *
   9:KWJ_Custom.c  ****  * Hardware Dependency:
  10:KWJ_Custom.c  ****  * CYBLE-014008
  11:KWJ_Custom.c  ****  *
  12:KWJ_Custom.c  ****  * Copyright ODI, 2016
  13:KWJ_Custom.c  ****  * All Rights Reserved
  14:KWJ_Custom.c  ****  * UNPUBLISHED, LICENSED SOFTWARE.
  15:KWJ_Custom.c  ****  *
  16:KWJ_Custom.c  ****  * CONFIDENTIAL AND PROPRIETARY INFORMATION
  17:KWJ_Custom.c  ****  * WHICH IS THE PROPERTY OF ODI.
  18:KWJ_Custom.c  ****  * RCRegna - Author
  19:KWJ_Custom.c  ****  * ========================================
  20:KWJ_Custom.c  **** */
  21:KWJ_Custom.c  **** #include "project.h"
  22:KWJ_Custom.c  **** #include "main.h"
  23:KWJ_Custom.c  **** #include "KWJ_BLE_Process.h"
  24:KWJ_Custom.c  **** 
  25:KWJ_Custom.c  **** /* Convert uint8[] to uint16 *
  26:KWJ_Custom.c  **** ******************************/
  27:KWJ_Custom.c  **** uint16 rtnLong(uint8 *gattPtr)
  28:KWJ_Custom.c  **** {
  28              		.loc 1 28 0
  29              		.cfi_startproc
ARM GAS  C:\Users\Zoltan\AppData\Local\Temp\ccKukJBo.s 			page 2


  30              		@ args = 0, pretend = 0, frame = 0
  31              		@ frame_needed = 0, uses_anonymous_args = 0
  32              		@ link register save eliminated.
  33              	.LVL0:
  34              		.loc 1 28 0
  35 0000 0300     		movs	r3, r0
  29:KWJ_Custom.c  ****     uint8 i;
  30:KWJ_Custom.c  ****     union lng
  31:KWJ_Custom.c  ****     {
  32:KWJ_Custom.c  ****         uint8 tmpBfr[SIZE_2_BYTES];
  33:KWJ_Custom.c  ****         uint16 val;
  34:KWJ_Custom.c  ****     }lng;
  35:KWJ_Custom.c  ****     for(i = 0; i < SIZE_2_BYTES; i++) { lng.tmpBfr[i] = gattPtr[i]; }
  36              		.loc 1 35 0
  37 0002 4078     		ldrb	r0, [r0, #1]
  38              	.LVL1:
  39 0004 1B78     		ldrb	r3, [r3]
  40              	.LVL2:
  41 0006 0002     		lsls	r0, r0, #8
  42              	.LVL3:
  36:KWJ_Custom.c  ****     uint16 rtnVal = lng.val;
  43              		.loc 1 36 0
  44 0008 1843     		orrs	r0, r3
  45              	.LVL4:
  37:KWJ_Custom.c  ****     
  38:KWJ_Custom.c  ****     return rtnVal;
  39:KWJ_Custom.c  **** }
  46              		.loc 1 39 0
  47              		@ sp needed
  48 000a 7047     		bx	lr
  49              		.cfi_endproc
  50              	.LFE63:
  51              		.size	rtnLong, .-rtnLong
  52              		.section	.text.rtnFloat,"ax",%progbits
  53              		.align	1
  54              		.global	rtnFloat
  55              		.code	16
  56              		.thumb_func
  57              		.type	rtnFloat, %function
  58              	rtnFloat:
  59              	.LFB64:
  40:KWJ_Custom.c  **** /* Convert uint8[] to float  *
  41:KWJ_Custom.c  **** ******************************/
  42:KWJ_Custom.c  **** float rtnFloat(uint8 *gattPtr)
  43:KWJ_Custom.c  **** {
  60              		.loc 1 43 0
  61              		.cfi_startproc
  62              		@ args = 0, pretend = 0, frame = 8
  63              		@ frame_needed = 0, uses_anonymous_args = 0
  64              		@ link register save eliminated.
  65              	.LVL5:
  66 0000 0023     		movs	r3, #0
  67 0002 82B0     		sub	sp, sp, #8
  68              		.cfi_def_cfa_offset 8
  69              	.LVL6:
  70              	.L3:
  44:KWJ_Custom.c  ****     uint8 i;
ARM GAS  C:\Users\Zoltan\AppData\Local\Temp\ccKukJBo.s 			page 3


  45:KWJ_Custom.c  ****     union flt
  46:KWJ_Custom.c  ****     {
  47:KWJ_Custom.c  ****         uint8 tmpBfr[SIZE_4_BYTES];
  48:KWJ_Custom.c  ****         float val;
  49:KWJ_Custom.c  ****     }flt;
  50:KWJ_Custom.c  ****     for(i = 0; i < SIZE_4_BYTES; i++) { flt.tmpBfr[i] = gattPtr[i]; }
  71              		.loc 1 50 0 discriminator 3
  72 0004 C15C     		ldrb	r1, [r0, r3]
  73 0006 01AA     		add	r2, sp, #4
  74 0008 9954     		strb	r1, [r3, r2]
  75              	.LVL7:
  76 000a 0133     		adds	r3, r3, #1
  77              	.LVL8:
  78 000c 042B     		cmp	r3, #4
  79 000e F9D1     		bne	.L3
  80              	.LVL9:
  51:KWJ_Custom.c  ****     float rtnVal = flt.val;
  52:KWJ_Custom.c  ****     
  53:KWJ_Custom.c  ****     return rtnVal;
  54:KWJ_Custom.c  **** }
  81              		.loc 1 54 0
  82 0010 0198     		ldr	r0, [sp, #4]
  83              	.LVL10:
  84 0012 02B0     		add	sp, sp, #8
  85              		@ sp needed
  86 0014 7047     		bx	lr
  87              		.cfi_endproc
  88              	.LFE64:
  89              		.size	rtnFloat, .-rtnFloat
  90              		.global	__aeabi_i2f
  91              		.global	__aeabi_f2iz
  92              		.section	.text.rtnInt32,"ax",%progbits
  93              		.align	1
  94              		.global	rtnInt32
  95              		.code	16
  96              		.thumb_func
  97              		.type	rtnInt32, %function
  98              	rtnInt32:
  99              	.LFB65:
  55:KWJ_Custom.c  **** /* Convert uint8[] to 32 bit int  *
  56:KWJ_Custom.c  **** ******************************/
  57:KWJ_Custom.c  **** int32 rtnInt32(uint8 *gattPtr)
  58:KWJ_Custom.c  **** {
 100              		.loc 1 58 0
 101              		.cfi_startproc
 102              		@ args = 0, pretend = 0, frame = 8
 103              		@ frame_needed = 0, uses_anonymous_args = 0
 104              	.LVL11:
 105 0000 0023     		movs	r3, #0
 106 0002 07B5     		push	{r0, r1, r2, lr}
 107              		.cfi_def_cfa_offset 16
 108              		.cfi_offset 0, -16
 109              		.cfi_offset 1, -12
 110              		.cfi_offset 2, -8
 111              		.cfi_offset 14, -4
 112              	.LVL12:
 113              	.L7:
ARM GAS  C:\Users\Zoltan\AppData\Local\Temp\ccKukJBo.s 			page 4


  59:KWJ_Custom.c  ****     uint8 i;
  60:KWJ_Custom.c  ****     union in32
  61:KWJ_Custom.c  ****     {
  62:KWJ_Custom.c  ****         uint8 tmpBfr[SIZE_4_BYTES];
  63:KWJ_Custom.c  ****         int32 val;
  64:KWJ_Custom.c  ****     }in32;
  65:KWJ_Custom.c  ****     for(i = 0; i < SIZE_4_BYTES; i++) { in32.tmpBfr[i] = gattPtr[i]; }
 114              		.loc 1 65 0 discriminator 3
 115 0004 C15C     		ldrb	r1, [r0, r3]
 116 0006 01AA     		add	r2, sp, #4
 117 0008 9954     		strb	r1, [r3, r2]
 118              	.LVL13:
 119 000a 0133     		adds	r3, r3, #1
 120              	.LVL14:
 121 000c 042B     		cmp	r3, #4
 122 000e F9D1     		bne	.L7
 123              	.LVL15:
  66:KWJ_Custom.c  ****     float rtnVal = in32.val;
  67:KWJ_Custom.c  ****     
  68:KWJ_Custom.c  ****     return rtnVal;
 124              		.loc 1 68 0
 125 0010 0198     		ldr	r0, [sp, #4]
 126              	.LVL16:
 127 0012 FFF7FEFF 		bl	__aeabi_i2f
 128              	.LVL17:
 129 0016 FFF7FEFF 		bl	__aeabi_f2iz
 130              	.LVL18:
  69:KWJ_Custom.c  **** }
 131              		.loc 1 69 0
 132              		@ sp needed
 133 001a 0EBD     		pop	{r1, r2, r3, pc}
 134              		.cfi_endproc
 135              	.LFE65:
 136              		.size	rtnInt32, .-rtnInt32
 137              		.section	.text.KwjEventHandler,"ax",%progbits
 138              		.align	1
 139              		.global	KwjEventHandler
 140              		.code	16
 141              		.thumb_func
 142              		.type	KwjEventHandler, %function
 143              	KwjEventHandler:
 144              	.LFB66:
  70:KWJ_Custom.c  **** 
  71:KWJ_Custom.c  **** /*****************************************************************************
  72:KWJ_Custom.c  **** * Function Name: KwjEventHandler
  73:KWJ_Custom.c  **** ******************************************************************************
  74:KWJ_Custom.c  **** * Summary:
  75:KWJ_Custom.c  **** * Event handler for the KWJ Custom Service specific events.
  76:KWJ_Custom.c  **** *
  77:KWJ_Custom.c  **** * Params:
  78:KWJ_Custom.c  **** *  event - KWJ Service Characteristic
  79:KWJ_Custom.c  **** *  eventParam - KWJ Service Characteristic Value
  80:KWJ_Custom.c  **** *
  81:KWJ_Custom.c  **** * Return:
  82:KWJ_Custom.c  **** *  None
  83:KWJ_Custom.c  **** *
  84:KWJ_Custom.c  **** *****************************************************************************/
ARM GAS  C:\Users\Zoltan\AppData\Local\Temp\ccKukJBo.s 			page 5


  85:KWJ_Custom.c  **** void KwjEventHandler(CYBLE_GATTS_WRITE_REQ_PARAM_T *wrReqParam)
  86:KWJ_Custom.c  **** {
 145              		.loc 1 86 0
 146              		.cfi_startproc
 147              		@ args = 0, pretend = 0, frame = 8
 148              		@ frame_needed = 0, uses_anonymous_args = 0
 149              	.LVL19:
 150 0000 F7B5     		push	{r0, r1, r2, r4, r5, r6, r7, lr}
 151              		.cfi_def_cfa_offset 32
 152              		.cfi_offset 0, -32
 153              		.cfi_offset 1, -28
 154              		.cfi_offset 2, -24
 155              		.cfi_offset 4, -20
 156              		.cfi_offset 5, -16
 157              		.cfi_offset 6, -12
 158              		.cfi_offset 7, -8
 159              		.cfi_offset 14, -4
  87:KWJ_Custom.c  ****  
  88:KWJ_Custom.c  ****     uint32 calFlags = SAV_DB.CAL_DONE;
  89:KWJ_Custom.c  ****     CYBLE_API_RESULT_T apiResult;
  90:KWJ_Custom.c  ****     uint16  index = wrReqParam->handleValPair.attrHandle;
  91:KWJ_Custom.c  ****     uint8 * value = wrReqParam->handleValPair.value.val;
  92:KWJ_Custom.c  ****     uint8    size = wrReqParam->handleValPair.value.len;
  93:KWJ_Custom.c  ****     
  94:KWJ_Custom.c  ****     apiResult = CyBle_GattsWriteRsp(cyBle_connHandle); 
 160              		.loc 1 94 0
 161 0002 7C4A     		ldr	r2, .L44
  92:KWJ_Custom.c  ****     
 162              		.loc 1 92 0
 163 0004 0389     		ldrh	r3, [r0, #8]
  90:KWJ_Custom.c  ****     uint8 * value = wrReqParam->handleValPair.value.val;
 164              		.loc 1 90 0
 165 0006 8789     		ldrh	r7, [r0, #12]
  91:KWJ_Custom.c  ****     uint8    size = wrReqParam->handleValPair.value.len;
 166              		.loc 1 91 0
 167 0008 4568     		ldr	r5, [r0, #4]
 168              		.loc 1 94 0
 169 000a 5078     		ldrb	r0, [r2, #1]
 170              	.LVL20:
  92:KWJ_Custom.c  ****     
 171              		.loc 1 92 0
 172 000c 0193     		str	r3, [sp, #4]
 173              		.loc 1 94 0
 174 000e 1378     		ldrb	r3, [r2]
  88:KWJ_Custom.c  ****     CYBLE_API_RESULT_T apiResult;
 175              		.loc 1 88 0
 176 0010 794E     		ldr	r6, .L44+4
 177              		.loc 1 94 0
 178 0012 0002     		lsls	r0, r0, #8
 179 0014 1843     		orrs	r0, r3
  88:KWJ_Custom.c  ****     CYBLE_API_RESULT_T apiResult;
 180              		.loc 1 88 0
 181 0016 F46D     		ldr	r4, [r6, #92]
 182              	.LVL21:
 183              		.loc 1 94 0
 184 0018 FFF7FEFF 		bl	CyBle_GattsWriteRsp
 185              	.LVL22:
ARM GAS  C:\Users\Zoltan\AppData\Local\Temp\ccKukJBo.s 			page 6


  95:KWJ_Custom.c  ****     if(apiResult == CYBLE_ERROR_OK)
 186              		.loc 1 95 0
 187 001c 0028     		cmp	r0, #0
 188 001e 00D0     		beq	.LCB138
 189 0020 E6E0     		b	.L9	@long jump
 190              	.LCB138:
  96:KWJ_Custom.c  ****     {
  97:KWJ_Custom.c  **** 
  98:KWJ_Custom.c  ****     /* Event handler switch statement for the KWJ service specific events. */
  99:KWJ_Custom.c  ****         switch(index)
 191              		.loc 1 99 0
 192 0022 3800     		movs	r0, r7
 193              	.LVL23:
 194 0024 1E38     		subs	r0, r0, #30
 195 0026 2A28     		cmp	r0, #42
 196 0028 00D9     		bls	.LCB143
 197 002a CAE0     		b	.L12	@long jump
 198              	.LCB143:
 199 002c FFF7FEFF 		bl	__gnu_thumb1_case_uqi
 200              	.L14:
 201 0030 1C       		.byte	(.L13-.L14)/2
 202 0031 C9       		.byte	(.L12-.L14)/2
 203 0032 C9       		.byte	(.L12-.L14)/2
 204 0033 C9       		.byte	(.L12-.L14)/2
 205 0034 16       		.byte	(.L15-.L14)/2
 206 0035 C9       		.byte	(.L12-.L14)/2
 207 0036 C9       		.byte	(.L12-.L14)/2
 208 0037 C9       		.byte	(.L12-.L14)/2
 209 0038 C9       		.byte	(.L12-.L14)/2
 210 0039 C9       		.byte	(.L12-.L14)/2
 211 003a C9       		.byte	(.L12-.L14)/2
 212 003b 20       		.byte	(.L16-.L14)/2
 213 003c 27       		.byte	(.L17-.L14)/2
 214 003d 2D       		.byte	(.L18-.L14)/2
 215 003e 33       		.byte	(.L19-.L14)/2
 216 003f 39       		.byte	(.L20-.L14)/2
 217 0040 40       		.byte	(.L21-.L14)/2
 218 0041 47       		.byte	(.L22-.L14)/2
 219 0042 C9       		.byte	(.L12-.L14)/2
 220 0043 4F       		.byte	(.L23-.L14)/2
 221 0044 55       		.byte	(.L24-.L14)/2
 222 0045 5C       		.byte	(.L25-.L14)/2
 223 0046 63       		.byte	(.L26-.L14)/2
 224 0047 6A       		.byte	(.L27-.L14)/2
 225 0048 72       		.byte	(.L28-.L14)/2
 226 0049 7A       		.byte	(.L29-.L14)/2
 227 004a C9       		.byte	(.L12-.L14)/2
 228 004b 82       		.byte	(.L30-.L14)/2
 229 004c 89       		.byte	(.L31-.L14)/2
 230 004d C9       		.byte	(.L12-.L14)/2
 231 004e 90       		.byte	(.L32-.L14)/2
 232 004f 97       		.byte	(.L33-.L14)/2
 233 0050 C9       		.byte	(.L12-.L14)/2
 234 0051 9E       		.byte	(.L34-.L14)/2
 235 0052 A5       		.byte	(.L35-.L14)/2
 236 0053 C9       		.byte	(.L12-.L14)/2
 237 0054 AC       		.byte	(.L36-.L14)/2
ARM GAS  C:\Users\Zoltan\AppData\Local\Temp\ccKukJBo.s 			page 7


 238 0055 B3       		.byte	(.L37-.L14)/2
 239 0056 BA       		.byte	(.L38-.L14)/2
 240 0057 C0       		.byte	(.L39-.L14)/2
 241 0058 C9       		.byte	(.L12-.L14)/2
 242 0059 C9       		.byte	(.L12-.L14)/2
 243 005a C6       		.byte	(.L40-.L14)/2
 244 005b 00       		.p2align 1
 245              	.L15:
 100:KWJ_Custom.c  ****     	{
 101:KWJ_Custom.c  ****             case LOG_TYPE:    /*< Handle of the Logging descriptor */
 102:KWJ_Custom.c  ****               LogHandler(value);
 246              		.loc 1 102 0
 247 005c 2800     		movs	r0, r5
 248 005e FFF7FEFF 		bl	LogHandler
 249              	.LVL24:
 103:KWJ_Custom.c  ****               calFlags |= LOG_TYPE_CAL;
 250              		.loc 1 103 0
 251 0062 8023     		movs	r3, #128
 252 0064 5B04     		lsls	r3, r3, #17
 253 0066 08E0     		b	.L42
 254              	.L13:
 104:KWJ_Custom.c  ****             break;
 105:KWJ_Custom.c  ****             case LOG_CCCD:    /*< Handle of the Logging descriptor */
 106:KWJ_Custom.c  ****               LogUploader(value);
 255              		.loc 1 106 0
 256 0068 2800     		movs	r0, r5
 257 006a FFF7FEFF 		bl	LogUploader
 258              	.LVL25:
 107:KWJ_Custom.c  ****             break;
 259              		.loc 1 107 0
 260 006e A8E0     		b	.L12
 261              	.L16:
 108:KWJ_Custom.c  **** 
 109:KWJ_Custom.c  ****             case CO_GAIN_INDEX:    /*< Handle of the CO Gain descriptor */
 110:KWJ_Custom.c  ****               SAV_DB.CO_GAIN = rtnFloat(value);
 262              		.loc 1 110 0
 263 0070 2800     		movs	r0, r5
 264 0072 FFF7FEFF 		bl	rtnFloat
 265              	.LVL26:
 111:KWJ_Custom.c  ****               calFlags |= CO_GAIN_CAL;
 266              		.loc 1 111 0
 267 0076 0123     		movs	r3, #1
 110:KWJ_Custom.c  ****               calFlags |= CO_GAIN_CAL;
 268              		.loc 1 110 0
 269 0078 7060     		str	r0, [r6, #4]
 270              	.L42:
 271              		.loc 1 111 0
 272 007a 1C43     		orrs	r4, r3
 273              	.LVL27:
 112:KWJ_Custom.c  ****             break;
 274              		.loc 1 112 0
 275 007c A1E0     		b	.L12
 276              	.LVL28:
 277              	.L17:
 113:KWJ_Custom.c  ****             case CO_OS_INDEX:      /*< Handle of the CO OS descriptor */ 
 114:KWJ_Custom.c  ****               SAV_DB.CO_OS = rtnFloat(value);
 278              		.loc 1 114 0
ARM GAS  C:\Users\Zoltan\AppData\Local\Temp\ccKukJBo.s 			page 8


 279 007e 2800     		movs	r0, r5
 280 0080 FFF7FEFF 		bl	rtnFloat
 281              	.LVL29:
 115:KWJ_Custom.c  ****               calFlags |= CO_OS_CAL;
 282              		.loc 1 115 0
 283 0084 0223     		movs	r3, #2
 114:KWJ_Custom.c  ****               calFlags |= CO_OS_CAL;
 284              		.loc 1 114 0
 285 0086 B060     		str	r0, [r6, #8]
 286 0088 F7E7     		b	.L42
 287              	.L18:
 116:KWJ_Custom.c  ****     		    break;
 117:KWJ_Custom.c  ****             case CO_TZRO_TC_INDEX:    /*< Handle of the CO Gain TC descriptor */
 118:KWJ_Custom.c  ****               SAV_DB.CO_TZRO_TC = rtnInt32(value);
 288              		.loc 1 118 0
 289 008a 2800     		movs	r0, r5
 290 008c FFF7FEFF 		bl	rtnInt32
 291              	.LVL30:
 119:KWJ_Custom.c  ****               calFlags |= CO_TZRO_TC_CAL;
 292              		.loc 1 119 0
 293 0090 0423     		movs	r3, #4
 118:KWJ_Custom.c  ****               calFlags |= CO_TZRO_TC_CAL;
 294              		.loc 1 118 0
 295 0092 F060     		str	r0, [r6, #12]
 296 0094 F1E7     		b	.L42
 297              	.L19:
 120:KWJ_Custom.c  ****             break;
 121:KWJ_Custom.c  ****             case CO_SNSFAC_INDEX:      /*< Handle of the CO OS TC descriptor */ 
 122:KWJ_Custom.c  ****               SAV_DB.CO_SNS_FAC = rtnFloat(value);
 298              		.loc 1 122 0
 299 0096 2800     		movs	r0, r5
 300 0098 FFF7FEFF 		bl	rtnFloat
 301              	.LVL31:
 123:KWJ_Custom.c  ****               calFlags |= CO_SNS_FAC_CAL;
 302              		.loc 1 123 0
 303 009c 0823     		movs	r3, #8
 122:KWJ_Custom.c  ****               calFlags |= CO_SNS_FAC_CAL;
 304              		.loc 1 122 0
 305 009e 3061     		str	r0, [r6, #16]
 306 00a0 EBE7     		b	.L42
 307              	.L20:
 124:KWJ_Custom.c  ****     		    break;
 125:KWJ_Custom.c  ****             case CO_MOD_INDEX:     /*< Handle of the CO MOD descriptor */ 
 126:KWJ_Custom.c  ****               calFlags |= CO_MOD_CAL;
 308              		.loc 1 126 0
 309 00a2 1023     		movs	r3, #16
 127:KWJ_Custom.c  ****               CO_MOD = rtnLong(value);
 310              		.loc 1 127 0
 311 00a4 2800     		movs	r0, r5
 126:KWJ_Custom.c  ****               CO_MOD = rtnLong(value);
 312              		.loc 1 126 0
 313 00a6 1C43     		orrs	r4, r3
 314              	.LVL32:
 315              		.loc 1 127 0
 316 00a8 FFF7FEFF 		bl	rtnLong
 317              	.LVL33:
 318 00ac 534B     		ldr	r3, .L44+8
ARM GAS  C:\Users\Zoltan\AppData\Local\Temp\ccKukJBo.s 			page 9


 319 00ae 0CE0     		b	.L43
 320              	.LVL34:
 321              	.L21:
 128:KWJ_Custom.c  ****     		    break;
 129:KWJ_Custom.c  ****             case CO_UNH_INDEX:     /*< Handle of the CO UNH descriptor */ 
 130:KWJ_Custom.c  ****               calFlags |= CO_UNH_CAL;
 322              		.loc 1 130 0
 323 00b0 2023     		movs	r3, #32
 131:KWJ_Custom.c  ****               CO_UNH = rtnLong(value);
 324              		.loc 1 131 0
 325 00b2 2800     		movs	r0, r5
 130:KWJ_Custom.c  ****               CO_UNH = rtnLong(value);
 326              		.loc 1 130 0
 327 00b4 1C43     		orrs	r4, r3
 328              	.LVL35:
 329              		.loc 1 131 0
 330 00b6 FFF7FEFF 		bl	rtnLong
 331              	.LVL36:
 332 00ba 514B     		ldr	r3, .L44+12
 333 00bc 05E0     		b	.L43
 334              	.LVL37:
 335              	.L22:
 132:KWJ_Custom.c  ****     		    break;
 133:KWJ_Custom.c  ****             case CO_HAZ_INDEX:     /*< Handle of the CO HAZ descriptor */ 
 134:KWJ_Custom.c  ****               calFlags |= CO_HAZ_CAL;
 336              		.loc 1 134 0
 337 00be 4023     		movs	r3, #64
 135:KWJ_Custom.c  ****               CO_HAZ = rtnLong(value);
 338              		.loc 1 135 0
 339 00c0 2800     		movs	r0, r5
 134:KWJ_Custom.c  ****               CO_HAZ = rtnLong(value);
 340              		.loc 1 134 0
 341 00c2 1C43     		orrs	r4, r3
 342              	.LVL38:
 343              		.loc 1 135 0
 344 00c4 FFF7FEFF 		bl	rtnLong
 345              	.LVL39:
 346 00c8 4E4B     		ldr	r3, .L44+16
 347              	.L43:
 348 00ca 1880     		strh	r0, [r3]
 136:KWJ_Custom.c  ****     		    break;
 349              		.loc 1 136 0
 350 00cc 79E0     		b	.L12
 351              	.LVL40:
 352              	.L23:
 137:KWJ_Custom.c  **** 
 138:KWJ_Custom.c  ****             case O3_GAIN_INDEX:    /*< Handle of the O3 Gain descriptor */ 
 139:KWJ_Custom.c  ****               SAV_DB.O3_GAIN = rtnFloat(value);
 353              		.loc 1 139 0
 354 00ce 2800     		movs	r0, r5
 355 00d0 FFF7FEFF 		bl	rtnFloat
 356              	.LVL41:
 140:KWJ_Custom.c  ****               calFlags |= O3_GAIN_CAL;
 357              		.loc 1 140 0
 358 00d4 8023     		movs	r3, #128
 139:KWJ_Custom.c  ****               calFlags |= O3_GAIN_CAL;
 359              		.loc 1 139 0
ARM GAS  C:\Users\Zoltan\AppData\Local\Temp\ccKukJBo.s 			page 10


 360 00d6 B061     		str	r0, [r6, #24]
 361 00d8 CFE7     		b	.L42
 362              	.L24:
 141:KWJ_Custom.c  ****     		    break;
 142:KWJ_Custom.c  ****             case O3_OS_INDEX:      /*< Handle of the O3 OS descriptor */ 
 143:KWJ_Custom.c  ****               SAV_DB.O3_OS = rtnFloat(value);
 363              		.loc 1 143 0
 364 00da 2800     		movs	r0, r5
 365 00dc FFF7FEFF 		bl	rtnFloat
 366              	.LVL42:
 144:KWJ_Custom.c  ****               calFlags |= O3_OS_CAL;
 367              		.loc 1 144 0
 368 00e0 8023     		movs	r3, #128
 143:KWJ_Custom.c  ****               calFlags |= O3_OS_CAL;
 369              		.loc 1 143 0
 370 00e2 F061     		str	r0, [r6, #28]
 371              		.loc 1 144 0
 372 00e4 5B00     		lsls	r3, r3, #1
 373 00e6 C8E7     		b	.L42
 374              	.L25:
 145:KWJ_Custom.c  ****     		    break;
 146:KWJ_Custom.c  ****             case O3_TZRO_TC_INDEX:    /*< Handle of the O3 Gain TC descriptor */ 
 147:KWJ_Custom.c  ****               SAV_DB.O3_TZRO_TC = rtnInt32(value);
 375              		.loc 1 147 0
 376 00e8 2800     		movs	r0, r5
 377 00ea FFF7FEFF 		bl	rtnInt32
 378              	.LVL43:
 148:KWJ_Custom.c  ****               calFlags |= O3_TZRO_TC_CAL;
 379              		.loc 1 148 0
 380 00ee 8023     		movs	r3, #128
 147:KWJ_Custom.c  ****               calFlags |= O3_TZRO_TC_CAL;
 381              		.loc 1 147 0
 382 00f0 3062     		str	r0, [r6, #32]
 383              		.loc 1 148 0
 384 00f2 9B00     		lsls	r3, r3, #2
 385 00f4 C1E7     		b	.L42
 386              	.L26:
 149:KWJ_Custom.c  ****     		    break;
 150:KWJ_Custom.c  ****             case O3_SNSFAC_INDEX:      /*< Handle of the O3 OS TC descriptor */ 
 151:KWJ_Custom.c  ****               SAV_DB.O3_SNS_FAC = rtnFloat(value);
 387              		.loc 1 151 0
 388 00f6 2800     		movs	r0, r5
 389 00f8 FFF7FEFF 		bl	rtnFloat
 390              	.LVL44:
 152:KWJ_Custom.c  ****               calFlags |= O3_SNS_FAC_CAL;
 391              		.loc 1 152 0
 392 00fc 8023     		movs	r3, #128
 151:KWJ_Custom.c  ****               calFlags |= O3_SNS_FAC_CAL;
 393              		.loc 1 151 0
 394 00fe 7062     		str	r0, [r6, #36]
 395              		.loc 1 152 0
 396 0100 DB00     		lsls	r3, r3, #3
 397 0102 BAE7     		b	.L42
 398              	.L27:
 153:KWJ_Custom.c  ****     		    break;
 154:KWJ_Custom.c  ****             case O3_MOD_INDEX:     /*< Handle of the O3 MOD descriptor */ 
 155:KWJ_Custom.c  ****               O3_MOD = rtnLong(value);
ARM GAS  C:\Users\Zoltan\AppData\Local\Temp\ccKukJBo.s 			page 11


 399              		.loc 1 155 0
 400 0104 2800     		movs	r0, r5
 401 0106 FFF7FEFF 		bl	rtnLong
 402              	.LVL45:
 403 010a 3F4B     		ldr	r3, .L44+20
 404 010c 1880     		strh	r0, [r3]
 156:KWJ_Custom.c  ****               calFlags |= O3_MOD_CAL;
 405              		.loc 1 156 0
 406 010e 8023     		movs	r3, #128
 407 0110 1B01     		lsls	r3, r3, #4
 408 0112 B2E7     		b	.L42
 409              	.L28:
 157:KWJ_Custom.c  ****     		    break;
 158:KWJ_Custom.c  ****             case O3_UNH_INDEX:     /*< Handle of the O3 UNH descriptor */ 
 159:KWJ_Custom.c  ****               O3_UNH = rtnLong(value);
 410              		.loc 1 159 0
 411 0114 2800     		movs	r0, r5
 412 0116 FFF7FEFF 		bl	rtnLong
 413              	.LVL46:
 414 011a 3C4B     		ldr	r3, .L44+24
 415 011c 1880     		strh	r0, [r3]
 160:KWJ_Custom.c  ****               calFlags |= O3_UNH_CAL;
 416              		.loc 1 160 0
 417 011e 8023     		movs	r3, #128
 418 0120 5B01     		lsls	r3, r3, #5
 419 0122 AAE7     		b	.L42
 420              	.L29:
 161:KWJ_Custom.c  ****     		    break;
 162:KWJ_Custom.c  ****             case O3_HAZ_INDEX:     /*< Handle of the O3 HAZ descriptor */ 
 163:KWJ_Custom.c  ****               O3_HAZ = rtnLong(value);
 421              		.loc 1 163 0
 422 0124 2800     		movs	r0, r5
 423 0126 FFF7FEFF 		bl	rtnLong
 424              	.LVL47:
 425 012a 394B     		ldr	r3, .L44+28
 426 012c 1880     		strh	r0, [r3]
 164:KWJ_Custom.c  ****               calFlags |= O3_HAZ_CAL;
 427              		.loc 1 164 0
 428 012e 8023     		movs	r3, #128
 429 0130 9B01     		lsls	r3, r3, #6
 430 0132 A2E7     		b	.L42
 431              	.L30:
 165:KWJ_Custom.c  ****     		    break;
 166:KWJ_Custom.c  **** 
 167:KWJ_Custom.c  ****             case T_GAIN_INDEX:     /*< Handle of the T Gain descriptor */ 
 168:KWJ_Custom.c  ****               SAV_DB.T_GAIN = rtnFloat(value);
 432              		.loc 1 168 0
 433 0134 2800     		movs	r0, r5
 434 0136 FFF7FEFF 		bl	rtnFloat
 435              	.LVL48:
 169:KWJ_Custom.c  ****               calFlags |= T_GAIN_CAL;
 436              		.loc 1 169 0
 437 013a 8023     		movs	r3, #128
 168:KWJ_Custom.c  ****               calFlags |= T_GAIN_CAL;
 438              		.loc 1 168 0
 439 013c F062     		str	r0, [r6, #44]
 440              		.loc 1 169 0
ARM GAS  C:\Users\Zoltan\AppData\Local\Temp\ccKukJBo.s 			page 12


 441 013e DB01     		lsls	r3, r3, #7
 442 0140 9BE7     		b	.L42
 443              	.L31:
 170:KWJ_Custom.c  ****     		    break;
 171:KWJ_Custom.c  ****             case T_OS_INDEX:       /*< Handle of the T OS descriptor */ 
 172:KWJ_Custom.c  ****               SAV_DB.T_OS = rtnFloat(value);
 444              		.loc 1 172 0
 445 0142 2800     		movs	r0, r5
 446 0144 FFF7FEFF 		bl	rtnFloat
 447              	.LVL49:
 173:KWJ_Custom.c  ****               calFlags |= T_OS_CAL;
 448              		.loc 1 173 0
 449 0148 8023     		movs	r3, #128
 172:KWJ_Custom.c  ****               calFlags |= T_OS_CAL;
 450              		.loc 1 172 0
 451 014a 3063     		str	r0, [r6, #48]
 452              		.loc 1 173 0
 453 014c 1B02     		lsls	r3, r3, #8
 454 014e 94E7     		b	.L42
 455              	.L32:
 174:KWJ_Custom.c  ****     		    break;
 175:KWJ_Custom.c  **** 
 176:KWJ_Custom.c  ****             case RH_GAIN_INDEX:    /*< Handle of the RH Gain descriptor */ 
 177:KWJ_Custom.c  ****               SAV_DB.RH_GAIN = rtnFloat(value);
 456              		.loc 1 177 0
 457 0150 2800     		movs	r0, r5
 458 0152 FFF7FEFF 		bl	rtnFloat
 459              	.LVL50:
 178:KWJ_Custom.c  ****               calFlags |= RH_GAIN_CAL;
 460              		.loc 1 178 0
 461 0156 8023     		movs	r3, #128
 177:KWJ_Custom.c  ****               calFlags |= RH_GAIN_CAL;
 462              		.loc 1 177 0
 463 0158 B063     		str	r0, [r6, #56]
 464              		.loc 1 178 0
 465 015a 5B02     		lsls	r3, r3, #9
 466 015c 8DE7     		b	.L42
 467              	.L33:
 179:KWJ_Custom.c  ****     		    break;
 180:KWJ_Custom.c  ****             case RH_OS_INDEX:      /*< Handle of the RH OS descriptor */ 
 181:KWJ_Custom.c  ****               SAV_DB.RH_OS = rtnFloat(value);
 468              		.loc 1 181 0
 469 015e 2800     		movs	r0, r5
 470 0160 FFF7FEFF 		bl	rtnFloat
 471              	.LVL51:
 182:KWJ_Custom.c  ****               calFlags |= RH_OS_CAL;
 472              		.loc 1 182 0
 473 0164 8023     		movs	r3, #128
 181:KWJ_Custom.c  ****               calFlags |= RH_OS_CAL;
 474              		.loc 1 181 0
 475 0166 F063     		str	r0, [r6, #60]
 476              		.loc 1 182 0
 477 0168 9B02     		lsls	r3, r3, #10
 478 016a 86E7     		b	.L42
 479              	.L34:
 183:KWJ_Custom.c  ****     		    break;
 184:KWJ_Custom.c  **** 
ARM GAS  C:\Users\Zoltan\AppData\Local\Temp\ccKukJBo.s 			page 13


 185:KWJ_Custom.c  ****             case P_GAIN_INDEX:     /*< Handle of the P Gain descriptor */ 
 186:KWJ_Custom.c  ****               SAV_DB.P_GAIN = rtnFloat(value);
 480              		.loc 1 186 0
 481 016c 2800     		movs	r0, r5
 482 016e FFF7FEFF 		bl	rtnFloat
 483              	.LVL52:
 187:KWJ_Custom.c  ****               calFlags |= P_GAIN_CAL;
 484              		.loc 1 187 0
 485 0172 8023     		movs	r3, #128
 186:KWJ_Custom.c  ****               calFlags |= P_GAIN_CAL;
 486              		.loc 1 186 0
 487 0174 B064     		str	r0, [r6, #72]
 488              		.loc 1 187 0
 489 0176 DB02     		lsls	r3, r3, #11
 490 0178 7FE7     		b	.L42
 491              	.L35:
 188:KWJ_Custom.c  ****     		    break;
 189:KWJ_Custom.c  ****             case P_OS_INDEX:       /*< Handle of the P OS descriptor */ 
 190:KWJ_Custom.c  ****               SAV_DB.P_OS = rtnFloat(value);
 492              		.loc 1 190 0
 493 017a 2800     		movs	r0, r5
 494 017c FFF7FEFF 		bl	rtnFloat
 495              	.LVL53:
 191:KWJ_Custom.c  ****               calFlags |= P_OS_CAL;
 496              		.loc 1 191 0
 497 0180 8023     		movs	r3, #128
 190:KWJ_Custom.c  ****               calFlags |= P_OS_CAL;
 498              		.loc 1 190 0
 499 0182 F064     		str	r0, [r6, #76]
 500              		.loc 1 191 0
 501 0184 1B03     		lsls	r3, r3, #12
 502 0186 78E7     		b	.L42
 503              	.L36:
 192:KWJ_Custom.c  ****     		    break;
 193:KWJ_Custom.c  **** 
 194:KWJ_Custom.c  ****             case BAT_GAIN_INDEX:   /*< Handle of the BAT Gain descriptor */ 
 195:KWJ_Custom.c  ****               SAV_DB.BAT_GAIN = rtnFloat(value);
 504              		.loc 1 195 0
 505 0188 2800     		movs	r0, r5
 506 018a FFF7FEFF 		bl	rtnFloat
 507              	.LVL54:
 196:KWJ_Custom.c  ****               calFlags |= BAT_GAIN_CAL;
 508              		.loc 1 196 0
 509 018e 8023     		movs	r3, #128
 195:KWJ_Custom.c  ****               calFlags |= BAT_GAIN_CAL;
 510              		.loc 1 195 0
 511 0190 7065     		str	r0, [r6, #84]
 512              		.loc 1 196 0
 513 0192 5B03     		lsls	r3, r3, #13
 514 0194 71E7     		b	.L42
 515              	.L37:
 197:KWJ_Custom.c  ****     		    break;
 198:KWJ_Custom.c  ****             case BAT_OS_INDEX:     /*< Handle of the BAT OS descriptor */ 
 199:KWJ_Custom.c  ****               SAV_DB.BAT_OS = rtnFloat(value);
 516              		.loc 1 199 0
 517 0196 2800     		movs	r0, r5
 518 0198 FFF7FEFF 		bl	rtnFloat
ARM GAS  C:\Users\Zoltan\AppData\Local\Temp\ccKukJBo.s 			page 14


 519              	.LVL55:
 200:KWJ_Custom.c  ****               calFlags |= BAT_OS_CAL;
 520              		.loc 1 200 0
 521 019c 8023     		movs	r3, #128
 199:KWJ_Custom.c  ****               calFlags |= BAT_OS_CAL;
 522              		.loc 1 199 0
 523 019e B065     		str	r0, [r6, #88]
 524              		.loc 1 200 0
 525 01a0 9B03     		lsls	r3, r3, #14
 526 01a2 6AE7     		b	.L42
 527              	.L38:
 201:KWJ_Custom.c  ****     		    break;
 202:KWJ_Custom.c  ****             case BAT_LO_INDEX:     /*< Handle of the BAT LO descriptor */ 
 203:KWJ_Custom.c  ****               BAT_LO = (uint8)*value;
 528              		.loc 1 203 0
 529 01a4 1B4B     		ldr	r3, .L44+32
 530 01a6 2A78     		ldrb	r2, [r5]
 531 01a8 1A70     		strb	r2, [r3]
 204:KWJ_Custom.c  ****               calFlags |= BAT_LO_CAL;
 532              		.loc 1 204 0
 533 01aa 8023     		movs	r3, #128
 534 01ac DB03     		lsls	r3, r3, #15
 535 01ae 64E7     		b	.L42
 536              	.L39:
 205:KWJ_Custom.c  ****     		    break;
 206:KWJ_Custom.c  ****             case BAT_CRIT_INDEX:   /*< Handle of the BAT CRIT descriptor */
 207:KWJ_Custom.c  ****               BAT_CRIT = (uint8)*value;
 537              		.loc 1 207 0
 538 01b0 194B     		ldr	r3, .L44+36
 539 01b2 2A78     		ldrb	r2, [r5]
 540 01b4 1A70     		strb	r2, [r3]
 208:KWJ_Custom.c  ****               calFlags |= BAT_CRIT_CAL;
 541              		.loc 1 208 0
 542 01b6 8023     		movs	r3, #128
 543 01b8 1B04     		lsls	r3, r3, #16
 544 01ba 5EE7     		b	.L42
 545              	.L40:
 209:KWJ_Custom.c  ****     		    break;
 210:KWJ_Custom.c  ****             case CURRENT_TIME: /*< Handle of Date Time Service */
 211:KWJ_Custom.c  ****               Sys_RTC_Update(value);
 546              		.loc 1 211 0
 547 01bc 2800     		movs	r0, r5
 548 01be FFF7FEFF 		bl	Sys_RTC_Update
 549              	.LVL56:
 550              	.L12:
 212:KWJ_Custom.c  ****                 break;
 213:KWJ_Custom.c  ****     		
 214:KWJ_Custom.c  ****     		default:
 215:KWJ_Custom.c  ****         		break;
 216:KWJ_Custom.c  ****         
 217:KWJ_Custom.c  ****         }
 218:KWJ_Custom.c  ****         GattSetCharVal(index, size, value);
 551              		.loc 1 218 0
 552 01c2 6B46     		mov	r3, sp
 553 01c4 2A00     		movs	r2, r5
 554 01c6 1979     		ldrb	r1, [r3, #4]
 555 01c8 3800     		movs	r0, r7
ARM GAS  C:\Users\Zoltan\AppData\Local\Temp\ccKukJBo.s 			page 15


 556 01ca FFF7FEFF 		bl	GattSetCharVal
 557              	.LVL57:
 219:KWJ_Custom.c  ****         /**** Save CAL_FLAGS **********/
 220:KWJ_Custom.c  ****         SAV_DB.CAL_DONE = calFlags;
 221:KWJ_Custom.c  ****         WriteUserSFlashRow(DB_SAVE,StructToFlash((PARAM_DB_T *)&SAV_DB, sizeof(SAV_DB)));
 558              		.loc 1 221 0
 559 01ce 8021     		movs	r1, #128
 560 01d0 3000     		movs	r0, r6
 220:KWJ_Custom.c  ****         WriteUserSFlashRow(DB_SAVE,StructToFlash((PARAM_DB_T *)&SAV_DB, sizeof(SAV_DB)));
 561              		.loc 1 220 0
 562 01d2 F465     		str	r4, [r6, #92]
 563              		.loc 1 221 0
 564 01d4 FFF7FEFF 		bl	StructToFlash
 565              	.LVL58:
 566 01d8 0100     		movs	r1, r0
 567 01da 0120     		movs	r0, #1
 568 01dc FFF7FEFF 		bl	WriteUserSFlashRow
 569              	.LVL59:
 222:KWJ_Custom.c  ****         
 223:KWJ_Custom.c  ****         if(index == CURRENT_TIME)
 570              		.loc 1 223 0
 571 01e0 482F     		cmp	r7, #72
 572 01e2 05D1     		bne	.L9
 224:KWJ_Custom.c  ****         {
 225:KWJ_Custom.c  ****             // set BLE to Slow rate
 226:KWJ_Custom.c  ****             setFlag(CHANGE_BLE);
 573              		.loc 1 226 0
 574 01e4 1020     		movs	r0, #16
 575 01e6 FFF7FEFF 		bl	setFlag
 576              	.LVL60:
 227:KWJ_Custom.c  ****             setFlag(LOW_RATE_BLE);
 577              		.loc 1 227 0
 578 01ea 2020     		movs	r0, #32
 579 01ec FFF7FEFF 		bl	setFlag
 580              	.LVL61:
 581              	.L9:
 228:KWJ_Custom.c  ****         }
 229:KWJ_Custom.c  **** 	}
 230:KWJ_Custom.c  ****     
 231:KWJ_Custom.c  **** }
 582              		.loc 1 231 0
 583              		@ sp needed
 584              	.LVL62:
 585              	.LVL63:
 586 01f0 F7BD     		pop	{r0, r1, r2, r4, r5, r6, r7, pc}
 587              	.L45:
 588 01f2 C046     		.align	2
 589              	.L44:
 590 01f4 00000000 		.word	cyBle_connHandle
 591 01f8 00000000 		.word	SAV_DB
 592 01fc 00000000 		.word	CO_MOD
 593 0200 00000000 		.word	CO_UNH
 594 0204 00000000 		.word	CO_HAZ
 595 0208 00000000 		.word	O3_MOD
 596 020c 00000000 		.word	O3_UNH
 597 0210 00000000 		.word	O3_HAZ
 598 0214 00000000 		.word	BAT_LO
ARM GAS  C:\Users\Zoltan\AppData\Local\Temp\ccKukJBo.s 			page 16


 599 0218 00000000 		.word	BAT_CRIT
 600              		.cfi_endproc
 601              	.LFE66:
 602              		.size	KwjEventHandler, .-KwjEventHandler
 603              		.section	.text.SendKwjOverBLE,"ax",%progbits
 604              		.align	1
 605              		.global	SendKwjOverBLE
 606              		.code	16
 607              		.thumb_func
 608              		.type	SendKwjOverBLE, %function
 609              	SendKwjOverBLE:
 610              	.LFB67:
 232:KWJ_Custom.c  **** /*****************************************************************************
 233:KWJ_Custom.c  **** * Function Name: SendNotificationOverBLE
 234:KWJ_Custom.c  **** ******************************************************************************
 235:KWJ_Custom.c  **** * Summary:
 236:KWJ_Custom.c  **** * Creates and sends the specific characteristic notification 
 237:KWJ_Custom.c  **** * packet.
 238:KWJ_Custom.c  **** *
 239:KWJ_Custom.c  **** * Parameters:
 240:KWJ_Custom.c  **** * notificationFlag
 241:KWJ_Custom.c  **** *
 242:KWJ_Custom.c  **** * Return:
 243:KWJ_Custom.c  **** * None
 244:KWJ_Custom.c  **** *
 245:KWJ_Custom.c  **** * Side Effects:
 246:KWJ_Custom.c  **** * Resets Notification flag when completed
 247:KWJ_Custom.c  **** *
 248:KWJ_Custom.c  **** *****************************************************************************/
 249:KWJ_Custom.c  **** void SendKwjOverBLE(void)
 250:KWJ_Custom.c  **** {
 611              		.loc 1 250 0
 612              		.cfi_startproc
 613              		@ args = 0, pretend = 0, frame = 16
 614              		@ frame_needed = 0, uses_anonymous_args = 0
 615 0000 1FB5     		push	{r0, r1, r2, r3, r4, lr}
 616              		.cfi_def_cfa_offset 24
 617              		.cfi_offset 0, -24
 618              		.cfi_offset 1, -20
 619              		.cfi_offset 2, -16
 620              		.cfi_offset 3, -12
 621              		.cfi_offset 4, -8
 622              		.cfi_offset 14, -4
 251:KWJ_Custom.c  ****     CYBLE_GATTS_HANDLE_VALUE_NTF_T ntfReqParam;
 252:KWJ_Custom.c  ****     
 253:KWJ_Custom.c  ****     if(chkFlag( KWJ_CO_NOTIFICATION))
 623              		.loc 1 253 0
 624 0002 8020     		movs	r0, #128
 625 0004 0004     		lsls	r0, r0, #16
 626 0006 FFF7FEFF 		bl	chkFlag
 627              	.LVL64:
 628 000a 0028     		cmp	r0, #0
 629 000c 1FD0     		beq	.L48
 254:KWJ_Custom.c  ****     {
 255:KWJ_Custom.c  ****         if(YES == CYBLE_IS_NOTIFICATION_ENABLED(CO_CCCD))
 630              		.loc 1 255 0
 631 000e 244B     		ldr	r3, .L59
ARM GAS  C:\Users\Zoltan\AppData\Local\Temp\ccKukJBo.s 			page 17


 632 0010 FC33     		adds	r3, r3, #252
 633 0012 DB6F     		ldr	r3, [r3, #124]
 634 0014 5868     		ldr	r0, [r3, #4]
 635 0016 FFF7FEFF 		bl	CyBle_Get16ByPtr
 636              	.LVL65:
 637 001a C307     		lsls	r3, r0, #31
 638 001c 17D5     		bpl	.L48
 256:KWJ_Custom.c  ****         {
 257:KWJ_Custom.c  ****             /* Fill all fields of write request structure ... */
 258:KWJ_Custom.c  ****             ntfReqParam.attrHandle = (CYBLE_GATT_DB_ATTR_HANDLE_T) CO_MEASD;
 639              		.loc 1 258 0
 640 001e 1223     		movs	r3, #18
 641 0020 01AC     		add	r4, sp, #4
 259:KWJ_Custom.c  ****             ntfReqParam.value.val=VarToCharArray(&NOW_DB.CO_MEAS, SIZE_2_BYTES);
 642              		.loc 1 259 0
 643 0022 0221     		movs	r1, #2
 644 0024 1F48     		ldr	r0, .L59+4
 258:KWJ_Custom.c  ****             ntfReqParam.value.val=VarToCharArray(&NOW_DB.CO_MEAS, SIZE_2_BYTES);
 645              		.loc 1 258 0
 646 0026 2381     		strh	r3, [r4, #8]
 647              		.loc 1 259 0
 648 0028 FFF7FEFF 		bl	VarToCharArray
 649              	.LVL66:
 260:KWJ_Custom.c  ****             ntfReqParam.value.len = SIZE_2_BYTES;
 650              		.loc 1 260 0
 651 002c 0223     		movs	r3, #2
 261:KWJ_Custom.c  **** 
 262:KWJ_Custom.c  ****             /* Send notification to client using previously filled structure */
 263:KWJ_Custom.c  ****             if(CYBLE_ERROR_OK ==  CyBle_GattsNotification(cyBle_connHandle, &ntfReqParam))
 652              		.loc 1 263 0
 653 002e 1E4A     		ldr	r2, .L59+8
 259:KWJ_Custom.c  ****             ntfReqParam.value.len = SIZE_2_BYTES;
 654              		.loc 1 259 0
 655 0030 0190     		str	r0, [sp, #4]
 656              		.loc 1 263 0
 657 0032 5078     		ldrb	r0, [r2, #1]
 260:KWJ_Custom.c  ****             ntfReqParam.value.len = SIZE_2_BYTES;
 658              		.loc 1 260 0
 659 0034 A380     		strh	r3, [r4, #4]
 660              		.loc 1 263 0
 661 0036 1378     		ldrb	r3, [r2]
 662 0038 0002     		lsls	r0, r0, #8
 663 003a 1843     		orrs	r0, r3
 664 003c 2100     		movs	r1, r4
 665 003e FFF7FEFF 		bl	CyBle_GattsNotification
 666              	.LVL67:
 667 0042 0028     		cmp	r0, #0
 668 0044 03D1     		bne	.L48
 264:KWJ_Custom.c  ****             {
 265:KWJ_Custom.c  ****                 rstFlag(KWJ_CO_NOTIFICATION);
 669              		.loc 1 265 0
 670 0046 8020     		movs	r0, #128
 671 0048 0004     		lsls	r0, r0, #16
 672 004a FFF7FEFF 		bl	rstFlag
 673              	.LVL68:
 674              	.L48:
 266:KWJ_Custom.c  ****             }
ARM GAS  C:\Users\Zoltan\AppData\Local\Temp\ccKukJBo.s 			page 18


 267:KWJ_Custom.c  **** #ifdef KWJ_TEST
 268:KWJ_Custom.c  ****             if(YES == CYBLE_IS_NOTIFICATION_ENABLED(CAL_CCCD))
 269:KWJ_Custom.c  ****             {
 270:KWJ_Custom.c  ****                 ntfReqParam.attrHandle = (CYBLE_GATT_DB_ATTR_HANDLE_T) CO_RAW_INDEX;
 271:KWJ_Custom.c  ****                 ntfReqParam.value.val=VarToCharArray(&NOW_DB.CO_RAW, SIZE_2_BYTES);
 272:KWJ_Custom.c  ****                 ntfReqParam.value.len = SIZE_2_BYTES;
 273:KWJ_Custom.c  ****                 CyBle_GattsNotification(cyBle_connHandle, &ntfReqParam);
 274:KWJ_Custom.c  ****             }
 275:KWJ_Custom.c  **** #endif        
 276:KWJ_Custom.c  ****             
 277:KWJ_Custom.c  ****         }
 278:KWJ_Custom.c  ****     }
 279:KWJ_Custom.c  ****     if(chkFlag( KWJ_O3_NOTIFICATION))
 675              		.loc 1 279 0
 676 004e 8020     		movs	r0, #128
 677 0050 4004     		lsls	r0, r0, #17
 678 0052 FFF7FEFF 		bl	chkFlag
 679              	.LVL69:
 680 0056 0028     		cmp	r0, #0
 681 0058 20D0     		beq	.L46
 280:KWJ_Custom.c  ****     {
 281:KWJ_Custom.c  ****         if(YES == CYBLE_IS_NOTIFICATION_ENABLED(O3_CCCD))
 682              		.loc 1 281 0
 683 005a F823     		movs	r3, #248
 684 005c 104A     		ldr	r2, .L59
 685 005e 5B00     		lsls	r3, r3, #1
 686 0060 D358     		ldr	r3, [r2, r3]
 687 0062 5868     		ldr	r0, [r3, #4]
 688 0064 FFF7FEFF 		bl	CyBle_Get16ByPtr
 689              	.LVL70:
 690 0068 C307     		lsls	r3, r0, #31
 691 006a 17D5     		bpl	.L46
 282:KWJ_Custom.c  ****         {
 283:KWJ_Custom.c  ****             /* Fill all fields of write request structure ... */
 284:KWJ_Custom.c  ****             ntfReqParam.attrHandle = O3_MEASD;
 692              		.loc 1 284 0
 693 006c 1823     		movs	r3, #24
 694 006e 01AC     		add	r4, sp, #4
 285:KWJ_Custom.c  ****             ntfReqParam.value.val=VarToCharArray(&NOW_DB.O3_MEAS, SIZE_2_BYTES);
 695              		.loc 1 285 0
 696 0070 0221     		movs	r1, #2
 697 0072 0E48     		ldr	r0, .L59+12
 284:KWJ_Custom.c  ****             ntfReqParam.value.val=VarToCharArray(&NOW_DB.O3_MEAS, SIZE_2_BYTES);
 698              		.loc 1 284 0
 699 0074 2381     		strh	r3, [r4, #8]
 700              		.loc 1 285 0
 701 0076 FFF7FEFF 		bl	VarToCharArray
 702              	.LVL71:
 286:KWJ_Custom.c  ****             ntfReqParam.value.len = SIZE_2_BYTES;
 703              		.loc 1 286 0
 704 007a 0223     		movs	r3, #2
 287:KWJ_Custom.c  **** 
 288:KWJ_Custom.c  ****             /* Send notification to client using previously filled structure */
 289:KWJ_Custom.c  ****             if(CYBLE_ERROR_OK ==  CyBle_GattsNotification(cyBle_connHandle, &ntfReqParam))
 705              		.loc 1 289 0
 706 007c 0A4A     		ldr	r2, .L59+8
 285:KWJ_Custom.c  ****             ntfReqParam.value.len = SIZE_2_BYTES;
ARM GAS  C:\Users\Zoltan\AppData\Local\Temp\ccKukJBo.s 			page 19


 707              		.loc 1 285 0
 708 007e 0190     		str	r0, [sp, #4]
 709              		.loc 1 289 0
 710 0080 5078     		ldrb	r0, [r2, #1]
 286:KWJ_Custom.c  ****             ntfReqParam.value.len = SIZE_2_BYTES;
 711              		.loc 1 286 0
 712 0082 A380     		strh	r3, [r4, #4]
 713              		.loc 1 289 0
 714 0084 1378     		ldrb	r3, [r2]
 715 0086 0002     		lsls	r0, r0, #8
 716 0088 1843     		orrs	r0, r3
 717 008a 2100     		movs	r1, r4
 718 008c FFF7FEFF 		bl	CyBle_GattsNotification
 719              	.LVL72:
 720 0090 0028     		cmp	r0, #0
 721 0092 03D1     		bne	.L46
 290:KWJ_Custom.c  ****             {
 291:KWJ_Custom.c  ****                 rstFlag(KWJ_O3_NOTIFICATION);
 722              		.loc 1 291 0
 723 0094 8020     		movs	r0, #128
 724 0096 4004     		lsls	r0, r0, #17
 725 0098 FFF7FEFF 		bl	rstFlag
 726              	.LVL73:
 727              	.L46:
 292:KWJ_Custom.c  ****             }
 293:KWJ_Custom.c  **** #ifdef KWJ_TEST
 294:KWJ_Custom.c  ****             if(YES == CYBLE_IS_NOTIFICATION_ENABLED(CAL_CCCD))
 295:KWJ_Custom.c  ****             {
 296:KWJ_Custom.c  ****                 ntfReqParam.attrHandle = (CYBLE_GATT_DB_ATTR_HANDLE_T) O3_RAW_INDEX;
 297:KWJ_Custom.c  ****                 ntfReqParam.value.val=VarToCharArray(&NOW_DB.O3_RAW, SIZE_2_BYTES);
 298:KWJ_Custom.c  ****                 ntfReqParam.value.len = SIZE_2_BYTES;
 299:KWJ_Custom.c  ****                 CyBle_GattsNotification(cyBle_connHandle, &ntfReqParam);
 300:KWJ_Custom.c  ****             }
 301:KWJ_Custom.c  **** #endif        
 302:KWJ_Custom.c  ****         }
 303:KWJ_Custom.c  ****     }
 304:KWJ_Custom.c  **** }
 728              		.loc 1 304 0
 729              		@ sp needed
 730 009c 1FBD     		pop	{r0, r1, r2, r3, r4, pc}
 731              	.L60:
 732 009e C046     		.align	2
 733              	.L59:
 734 00a0 00000000 		.word	cyBle_gattDB
 735 00a4 00000000 		.word	NOW_DB
 736 00a8 00000000 		.word	cyBle_connHandle
 737 00ac 14000000 		.word	NOW_DB+20
 738              		.cfi_endproc
 739              	.LFE67:
 740              		.size	SendKwjOverBLE, .-SendKwjOverBLE
 741              		.comm	NOW_DB,128,4
 742              		.comm	SAV_DB,128,4
 743              		.comm	BAT_CRIT,1,1
 744              		.comm	BAT_LO,1,1
 745              		.comm	O3_HAZ,2,2
 746              		.comm	O3_UNH,2,2
 747              		.comm	O3_MOD,2,2
ARM GAS  C:\Users\Zoltan\AppData\Local\Temp\ccKukJBo.s 			page 20


 748              		.comm	CO_HAZ,2,2
 749              		.comm	CO_UNH,2,2
 750              		.comm	CO_MOD,2,2
 751              		.comm	alert,1,1
 752              		.comm	BFR,128,1
 753              		.comm	P3_INIT,4,4
 754              		.comm	P2_INIT,4,4
 755              		.comm	P1_INIT,4,4
 756              		.comm	P0_INIT,4,4
 757              		.comm	WRM_COUNT,2,2
 758              		.comm	MIN_COUNT,2,2
 759              		.comm	BLE_RETRY,1,1
 760              		.comm	SYSTK_CNT,4,4
 761              		.comm	SOFTWARE,15,1
 762              		.text
 763              	.Letext0:
 764              		.file 2 "Generated_Source\\PSoC4/cytypes.h"
 765              		.file 3 "Generated_Source\\PSoC4/BLE_Stack.h"
 766              		.file 4 "Generated_Source\\PSoC4/BLE_StackGatt.h"
 767              		.file 5 "Generated_Source\\PSoC4/BLE_StackGattServer.h"
 768              		.file 6 "Generated_Source\\PSoC4/BLE_StackGattDb.h"
 769              		.file 7 "Generated_Source\\PSoC4/BLE_dis.h"
 770              		.file 8 "Generated_Source\\PSoC4/BLE_ess.h"
 771              		.file 9 "main.h"
 772              		.file 10 "Generated_Source\\PSoC4/BLE_gatt.h"
 773              		.file 11 "Generated_Source\\PSoC4/BLE_eventHandler.h"
 774              		.file 12 "Generated_Source\\PSoC4/BLE.h"
