ARM GAS  C:\Users\Zoltan\AppData\Local\Temp\ccf4sbGK.s 			page 1


   1              		.syntax unified
   2              		.cpu cortex-m0
   3              		.fpu softvfp
   4              		.eabi_attribute 20, 1
   5              		.eabi_attribute 21, 1
   6              		.eabi_attribute 23, 3
   7              		.eabi_attribute 24, 1
   8              		.eabi_attribute 25, 1
   9              		.eabi_attribute 26, 1
  10              		.eabi_attribute 30, 4
  11              		.eabi_attribute 34, 0
  12              		.eabi_attribute 18, 4
  13              		.thumb
  14              		.syntax unified
  15              		.file	"SCB_SCBCLK.c"
  16              		.text
  17              	.Ltext0:
  18              		.cfi_sections	.debug_frame
  19              		.section	.text.SCB_SCBCLK_StartEx,"ax",%progbits
  20              		.align	1
  21              		.global	SCB_SCBCLK_StartEx
  22              		.code	16
  23              		.thumb_func
  24              		.type	SCB_SCBCLK_StartEx, %function
  25              	SCB_SCBCLK_StartEx:
  26              	.LFB0:
  27              		.file 1 "Generated_Source\\PSoC4\\SCB_SCBCLK.c"
   1:Generated_Source\PSoC4/SCB_SCBCLK.c **** /*******************************************************************************
   2:Generated_Source\PSoC4/SCB_SCBCLK.c **** * File Name: SCB_SCBCLK.c
   3:Generated_Source\PSoC4/SCB_SCBCLK.c **** * Version 2.20
   4:Generated_Source\PSoC4/SCB_SCBCLK.c **** *
   5:Generated_Source\PSoC4/SCB_SCBCLK.c **** *  Description:
   6:Generated_Source\PSoC4/SCB_SCBCLK.c **** *   Provides system API for the clocking, interrupts and watchdog timer.
   7:Generated_Source\PSoC4/SCB_SCBCLK.c **** *
   8:Generated_Source\PSoC4/SCB_SCBCLK.c **** *  Note:
   9:Generated_Source\PSoC4/SCB_SCBCLK.c **** *   Documentation of the API's in this file is located in the
  10:Generated_Source\PSoC4/SCB_SCBCLK.c **** *   System Reference Guide provided with PSoC Creator.
  11:Generated_Source\PSoC4/SCB_SCBCLK.c **** *
  12:Generated_Source\PSoC4/SCB_SCBCLK.c **** ********************************************************************************
  13:Generated_Source\PSoC4/SCB_SCBCLK.c **** * Copyright 2008-2012, Cypress Semiconductor Corporation.  All rights reserved.
  14:Generated_Source\PSoC4/SCB_SCBCLK.c **** * You may use this file only in accordance with the license, terms, conditions,
  15:Generated_Source\PSoC4/SCB_SCBCLK.c **** * disclaimers, and limitations in the end user license agreement accompanying
  16:Generated_Source\PSoC4/SCB_SCBCLK.c **** * the software package with which this file was provided.
  17:Generated_Source\PSoC4/SCB_SCBCLK.c **** *******************************************************************************/
  18:Generated_Source\PSoC4/SCB_SCBCLK.c **** 
  19:Generated_Source\PSoC4/SCB_SCBCLK.c **** #include <cydevice_trm.h>
  20:Generated_Source\PSoC4/SCB_SCBCLK.c **** #include "SCB_SCBCLK.h"
  21:Generated_Source\PSoC4/SCB_SCBCLK.c **** 
  22:Generated_Source\PSoC4/SCB_SCBCLK.c **** #if defined CYREG_PERI_DIV_CMD
  23:Generated_Source\PSoC4/SCB_SCBCLK.c **** 
  24:Generated_Source\PSoC4/SCB_SCBCLK.c **** /*******************************************************************************
  25:Generated_Source\PSoC4/SCB_SCBCLK.c **** * Function Name: SCB_SCBCLK_StartEx
  26:Generated_Source\PSoC4/SCB_SCBCLK.c **** ********************************************************************************
  27:Generated_Source\PSoC4/SCB_SCBCLK.c **** *
  28:Generated_Source\PSoC4/SCB_SCBCLK.c **** * Summary:
  29:Generated_Source\PSoC4/SCB_SCBCLK.c **** *  Starts the clock, aligned to the specified running clock.
  30:Generated_Source\PSoC4/SCB_SCBCLK.c **** *
ARM GAS  C:\Users\Zoltan\AppData\Local\Temp\ccf4sbGK.s 			page 2


  31:Generated_Source\PSoC4/SCB_SCBCLK.c **** * Parameters:
  32:Generated_Source\PSoC4/SCB_SCBCLK.c **** *  alignClkDiv:  The divider to which phase alignment is performed when the
  33:Generated_Source\PSoC4/SCB_SCBCLK.c **** *    clock is started.
  34:Generated_Source\PSoC4/SCB_SCBCLK.c **** *
  35:Generated_Source\PSoC4/SCB_SCBCLK.c **** * Returns:
  36:Generated_Source\PSoC4/SCB_SCBCLK.c **** *  None
  37:Generated_Source\PSoC4/SCB_SCBCLK.c **** *
  38:Generated_Source\PSoC4/SCB_SCBCLK.c **** *******************************************************************************/
  39:Generated_Source\PSoC4/SCB_SCBCLK.c **** void SCB_SCBCLK_StartEx(uint32 alignClkDiv)
  40:Generated_Source\PSoC4/SCB_SCBCLK.c **** {
  28              		.loc 1 40 0
  29              		.cfi_startproc
  30              		@ args = 0, pretend = 0, frame = 0
  31              		@ frame_needed = 0, uses_anonymous_args = 0
  32              		@ link register save eliminated.
  33              	.LVL0:
  41:Generated_Source\PSoC4/SCB_SCBCLK.c ****     /* Make sure any previous start command has finished. */
  42:Generated_Source\PSoC4/SCB_SCBCLK.c ****     while((SCB_SCBCLK_CMD_REG & SCB_SCBCLK_CMD_ENABLE_MASK) != 0u)
  34              		.loc 1 42 0
  35 0000 044A     		ldr	r2, .L5
  36              	.L2:
  37              		.loc 1 42 0 is_stmt 0 discriminator 1
  38 0002 1368     		ldr	r3, [r2]
  39 0004 002B     		cmp	r3, #0
  40 0006 FCDB     		blt	.L2
  43:Generated_Source\PSoC4/SCB_SCBCLK.c ****     {
  44:Generated_Source\PSoC4/SCB_SCBCLK.c ****     }
  45:Generated_Source\PSoC4/SCB_SCBCLK.c ****     
  46:Generated_Source\PSoC4/SCB_SCBCLK.c ****     /* Specify the target divider and it's alignment divider, and enable. */
  47:Generated_Source\PSoC4/SCB_SCBCLK.c ****     SCB_SCBCLK_CMD_REG =
  48:Generated_Source\PSoC4/SCB_SCBCLK.c ****         ((uint32)SCB_SCBCLK__DIV_ID << SCB_SCBCLK_CMD_DIV_SHIFT)|
  49:Generated_Source\PSoC4/SCB_SCBCLK.c ****         (alignClkDiv << SCB_SCBCLK_CMD_PA_DIV_SHIFT) |
  41              		.loc 1 49 0 is_stmt 1
  42 0008 034B     		ldr	r3, .L5+4
  43 000a 0002     		lsls	r0, r0, #8
  44              	.LVL1:
  45 000c 1843     		orrs	r0, r3
  47:Generated_Source\PSoC4/SCB_SCBCLK.c ****         ((uint32)SCB_SCBCLK__DIV_ID << SCB_SCBCLK_CMD_DIV_SHIFT)|
  46              		.loc 1 47 0
  47 000e 014B     		ldr	r3, .L5
  50:Generated_Source\PSoC4/SCB_SCBCLK.c ****         (uint32)SCB_SCBCLK_CMD_ENABLE_MASK;
  51:Generated_Source\PSoC4/SCB_SCBCLK.c **** }
  48              		.loc 1 51 0
  49              		@ sp needed
  47:Generated_Source\PSoC4/SCB_SCBCLK.c ****         ((uint32)SCB_SCBCLK__DIV_ID << SCB_SCBCLK_CMD_DIV_SHIFT)|
  50              		.loc 1 47 0
  51 0010 1860     		str	r0, [r3]
  52              		.loc 1 51 0
  53 0012 7047     		bx	lr
  54              	.L6:
  55              		.align	2
  56              	.L5:
  57 0014 00000140 		.word	1073807360
  58 0018 40000080 		.word	-2147483584
  59              		.cfi_endproc
  60              	.LFE0:
  61              		.size	SCB_SCBCLK_StartEx, .-SCB_SCBCLK_StartEx
ARM GAS  C:\Users\Zoltan\AppData\Local\Temp\ccf4sbGK.s 			page 3


  62              		.section	.text.SCB_SCBCLK_Stop,"ax",%progbits
  63              		.align	1
  64              		.global	SCB_SCBCLK_Stop
  65              		.code	16
  66              		.thumb_func
  67              		.type	SCB_SCBCLK_Stop, %function
  68              	SCB_SCBCLK_Stop:
  69              	.LFB1:
  52:Generated_Source\PSoC4/SCB_SCBCLK.c **** 
  53:Generated_Source\PSoC4/SCB_SCBCLK.c **** #else
  54:Generated_Source\PSoC4/SCB_SCBCLK.c **** 
  55:Generated_Source\PSoC4/SCB_SCBCLK.c **** /*******************************************************************************
  56:Generated_Source\PSoC4/SCB_SCBCLK.c **** * Function Name: SCB_SCBCLK_Start
  57:Generated_Source\PSoC4/SCB_SCBCLK.c **** ********************************************************************************
  58:Generated_Source\PSoC4/SCB_SCBCLK.c **** *
  59:Generated_Source\PSoC4/SCB_SCBCLK.c **** * Summary:
  60:Generated_Source\PSoC4/SCB_SCBCLK.c **** *  Starts the clock.
  61:Generated_Source\PSoC4/SCB_SCBCLK.c **** *
  62:Generated_Source\PSoC4/SCB_SCBCLK.c **** * Parameters:
  63:Generated_Source\PSoC4/SCB_SCBCLK.c **** *  None
  64:Generated_Source\PSoC4/SCB_SCBCLK.c **** *
  65:Generated_Source\PSoC4/SCB_SCBCLK.c **** * Returns:
  66:Generated_Source\PSoC4/SCB_SCBCLK.c **** *  None
  67:Generated_Source\PSoC4/SCB_SCBCLK.c **** *
  68:Generated_Source\PSoC4/SCB_SCBCLK.c **** *******************************************************************************/
  69:Generated_Source\PSoC4/SCB_SCBCLK.c **** 
  70:Generated_Source\PSoC4/SCB_SCBCLK.c **** void SCB_SCBCLK_Start(void)
  71:Generated_Source\PSoC4/SCB_SCBCLK.c **** {
  72:Generated_Source\PSoC4/SCB_SCBCLK.c ****     /* Set the bit to enable the clock. */
  73:Generated_Source\PSoC4/SCB_SCBCLK.c ****     SCB_SCBCLK_ENABLE_REG |= SCB_SCBCLK__ENABLE_MASK;
  74:Generated_Source\PSoC4/SCB_SCBCLK.c **** }
  75:Generated_Source\PSoC4/SCB_SCBCLK.c **** 
  76:Generated_Source\PSoC4/SCB_SCBCLK.c **** #endif /* CYREG_PERI_DIV_CMD */
  77:Generated_Source\PSoC4/SCB_SCBCLK.c **** 
  78:Generated_Source\PSoC4/SCB_SCBCLK.c **** 
  79:Generated_Source\PSoC4/SCB_SCBCLK.c **** /*******************************************************************************
  80:Generated_Source\PSoC4/SCB_SCBCLK.c **** * Function Name: SCB_SCBCLK_Stop
  81:Generated_Source\PSoC4/SCB_SCBCLK.c **** ********************************************************************************
  82:Generated_Source\PSoC4/SCB_SCBCLK.c **** *
  83:Generated_Source\PSoC4/SCB_SCBCLK.c **** * Summary:
  84:Generated_Source\PSoC4/SCB_SCBCLK.c **** *  Stops the clock and returns immediately. This API does not require the
  85:Generated_Source\PSoC4/SCB_SCBCLK.c **** *  source clock to be running but may return before the hardware is actually
  86:Generated_Source\PSoC4/SCB_SCBCLK.c **** *  disabled.
  87:Generated_Source\PSoC4/SCB_SCBCLK.c **** *
  88:Generated_Source\PSoC4/SCB_SCBCLK.c **** * Parameters:
  89:Generated_Source\PSoC4/SCB_SCBCLK.c **** *  None
  90:Generated_Source\PSoC4/SCB_SCBCLK.c **** *
  91:Generated_Source\PSoC4/SCB_SCBCLK.c **** * Returns:
  92:Generated_Source\PSoC4/SCB_SCBCLK.c **** *  None
  93:Generated_Source\PSoC4/SCB_SCBCLK.c **** *
  94:Generated_Source\PSoC4/SCB_SCBCLK.c **** *******************************************************************************/
  95:Generated_Source\PSoC4/SCB_SCBCLK.c **** void SCB_SCBCLK_Stop(void)
  96:Generated_Source\PSoC4/SCB_SCBCLK.c **** {
  70              		.loc 1 96 0
  71              		.cfi_startproc
  72              		@ args = 0, pretend = 0, frame = 0
  73              		@ frame_needed = 0, uses_anonymous_args = 0
ARM GAS  C:\Users\Zoltan\AppData\Local\Temp\ccf4sbGK.s 			page 4


  74              		@ link register save eliminated.
  97:Generated_Source\PSoC4/SCB_SCBCLK.c **** #if defined CYREG_PERI_DIV_CMD
  98:Generated_Source\PSoC4/SCB_SCBCLK.c **** 
  99:Generated_Source\PSoC4/SCB_SCBCLK.c ****     /* Make sure any previous start command has finished. */
 100:Generated_Source\PSoC4/SCB_SCBCLK.c ****     while((SCB_SCBCLK_CMD_REG & SCB_SCBCLK_CMD_ENABLE_MASK) != 0u)
  75              		.loc 1 100 0
  76 0000 034A     		ldr	r2, .L10
  77              	.L8:
  78              		.loc 1 100 0 is_stmt 0 discriminator 1
  79 0002 1368     		ldr	r3, [r2]
  80 0004 002B     		cmp	r3, #0
  81 0006 FCDB     		blt	.L8
 101:Generated_Source\PSoC4/SCB_SCBCLK.c ****     {
 102:Generated_Source\PSoC4/SCB_SCBCLK.c ****     }
 103:Generated_Source\PSoC4/SCB_SCBCLK.c ****     
 104:Generated_Source\PSoC4/SCB_SCBCLK.c ****     /* Specify the target divider and it's alignment divider, and disable. */
 105:Generated_Source\PSoC4/SCB_SCBCLK.c ****     SCB_SCBCLK_CMD_REG =
  82              		.loc 1 105 0 is_stmt 1
  83 0008 024A     		ldr	r2, .L10+4
  84 000a 014B     		ldr	r3, .L10
 106:Generated_Source\PSoC4/SCB_SCBCLK.c ****         ((uint32)SCB_SCBCLK__DIV_ID << SCB_SCBCLK_CMD_DIV_SHIFT)|
 107:Generated_Source\PSoC4/SCB_SCBCLK.c ****         ((uint32)SCB_SCBCLK_CMD_DISABLE_MASK);
 108:Generated_Source\PSoC4/SCB_SCBCLK.c **** 
 109:Generated_Source\PSoC4/SCB_SCBCLK.c **** #else
 110:Generated_Source\PSoC4/SCB_SCBCLK.c **** 
 111:Generated_Source\PSoC4/SCB_SCBCLK.c ****     /* Clear the bit to disable the clock. */
 112:Generated_Source\PSoC4/SCB_SCBCLK.c ****     SCB_SCBCLK_ENABLE_REG &= (uint32)(~SCB_SCBCLK__ENABLE_MASK);
 113:Generated_Source\PSoC4/SCB_SCBCLK.c ****     
 114:Generated_Source\PSoC4/SCB_SCBCLK.c **** #endif /* CYREG_PERI_DIV_CMD */
 115:Generated_Source\PSoC4/SCB_SCBCLK.c **** }
  85              		.loc 1 115 0
  86              		@ sp needed
 105:Generated_Source\PSoC4/SCB_SCBCLK.c ****         ((uint32)SCB_SCBCLK__DIV_ID << SCB_SCBCLK_CMD_DIV_SHIFT)|
  87              		.loc 1 105 0
  88 000c 1A60     		str	r2, [r3]
  89              		.loc 1 115 0
  90 000e 7047     		bx	lr
  91              	.L11:
  92              		.align	2
  93              	.L10:
  94 0010 00000140 		.word	1073807360
  95 0014 40000040 		.word	1073741888
  96              		.cfi_endproc
  97              	.LFE1:
  98              		.size	SCB_SCBCLK_Stop, .-SCB_SCBCLK_Stop
  99              		.section	.text.SCB_SCBCLK_SetFractionalDividerRegister,"ax",%progbits
 100              		.align	1
 101              		.global	SCB_SCBCLK_SetFractionalDividerRegister
 102              		.code	16
 103              		.thumb_func
 104              		.type	SCB_SCBCLK_SetFractionalDividerRegister, %function
 105              	SCB_SCBCLK_SetFractionalDividerRegister:
 106              	.LFB2:
 116:Generated_Source\PSoC4/SCB_SCBCLK.c **** 
 117:Generated_Source\PSoC4/SCB_SCBCLK.c **** 
 118:Generated_Source\PSoC4/SCB_SCBCLK.c **** /*******************************************************************************
 119:Generated_Source\PSoC4/SCB_SCBCLK.c **** * Function Name: SCB_SCBCLK_SetFractionalDividerRegister
ARM GAS  C:\Users\Zoltan\AppData\Local\Temp\ccf4sbGK.s 			page 5


 120:Generated_Source\PSoC4/SCB_SCBCLK.c **** ********************************************************************************
 121:Generated_Source\PSoC4/SCB_SCBCLK.c **** *
 122:Generated_Source\PSoC4/SCB_SCBCLK.c **** * Summary:
 123:Generated_Source\PSoC4/SCB_SCBCLK.c **** *  Modifies the clock divider and the fractional divider.
 124:Generated_Source\PSoC4/SCB_SCBCLK.c **** *
 125:Generated_Source\PSoC4/SCB_SCBCLK.c **** * Parameters:
 126:Generated_Source\PSoC4/SCB_SCBCLK.c **** *  clkDivider:  Divider register value (0-65535). This value is NOT the
 127:Generated_Source\PSoC4/SCB_SCBCLK.c **** *    divider; the clock hardware divides by clkDivider plus one. For example,
 128:Generated_Source\PSoC4/SCB_SCBCLK.c **** *    to divide the clock by 2, this parameter should be set to 1.
 129:Generated_Source\PSoC4/SCB_SCBCLK.c **** *  fracDivider:  Fractional Divider register value (0-31).
 130:Generated_Source\PSoC4/SCB_SCBCLK.c **** * Returns:
 131:Generated_Source\PSoC4/SCB_SCBCLK.c **** *  None
 132:Generated_Source\PSoC4/SCB_SCBCLK.c **** *
 133:Generated_Source\PSoC4/SCB_SCBCLK.c **** *******************************************************************************/
 134:Generated_Source\PSoC4/SCB_SCBCLK.c **** void SCB_SCBCLK_SetFractionalDividerRegister(uint16 clkDivider, uint8 clkFractional)
 135:Generated_Source\PSoC4/SCB_SCBCLK.c **** {
 107              		.loc 1 135 0
 108              		.cfi_startproc
 109              		@ args = 0, pretend = 0, frame = 0
 110              		@ frame_needed = 0, uses_anonymous_args = 0
 111              	.LVL2:
 136:Generated_Source\PSoC4/SCB_SCBCLK.c ****     uint32 maskVal;
 137:Generated_Source\PSoC4/SCB_SCBCLK.c ****     uint32 regVal;
 138:Generated_Source\PSoC4/SCB_SCBCLK.c ****     
 139:Generated_Source\PSoC4/SCB_SCBCLK.c **** #if defined (SCB_SCBCLK__FRAC_MASK) || defined (CYREG_PERI_DIV_CMD)
 140:Generated_Source\PSoC4/SCB_SCBCLK.c ****     
 141:Generated_Source\PSoC4/SCB_SCBCLK.c **** 	/* get all but divider bits */
 142:Generated_Source\PSoC4/SCB_SCBCLK.c ****     maskVal = SCB_SCBCLK_DIV_REG & 
 143:Generated_Source\PSoC4/SCB_SCBCLK.c ****                     (uint32)(~(uint32)(SCB_SCBCLK_DIV_INT_MASK | SCB_SCBCLK_DIV_FRAC_MASK)); 
 144:Generated_Source\PSoC4/SCB_SCBCLK.c **** 	/* combine mask and new divider vals into 32-bit value */
 145:Generated_Source\PSoC4/SCB_SCBCLK.c ****     regVal = maskVal |
 112              		.loc 1 145 0
 113 0000 FF22     		movs	r2, #255
 114 0002 C900     		lsls	r1, r1, #3
 115              	.LVL3:
 116 0004 1140     		ands	r1, r2
 117 0006 0202     		lsls	r2, r0, #8
 118 0008 1143     		orrs	r1, r2
 119 000a 0723     		movs	r3, #7
 120 000c 0800     		movs	r0, r1
 121              	.LVL4:
 135:Generated_Source\PSoC4/SCB_SCBCLK.c ****     uint32 maskVal;
 122              		.loc 1 135 0
 123 000e 30B5     		push	{r4, r5, lr}
 124              		.cfi_def_cfa_offset 12
 125              		.cfi_offset 4, -12
 126              		.cfi_offset 5, -8
 127              		.cfi_offset 14, -4
 142:Generated_Source\PSoC4/SCB_SCBCLK.c ****                     (uint32)(~(uint32)(SCB_SCBCLK_DIV_INT_MASK | SCB_SCBCLK_DIV_FRAC_MASK)); 
 128              		.loc 1 142 0
 129 0010 024C     		ldr	r4, .L13
 146:Generated_Source\PSoC4/SCB_SCBCLK.c ****         ((uint32)((uint32)clkDivider <<  SCB_SCBCLK_DIV_INT_SHIFT) & SCB_SCBCLK_DIV_INT_MASK) |
 147:Generated_Source\PSoC4/SCB_SCBCLK.c ****         ((uint32)((uint32)clkFractional << SCB_SCBCLK_DIV_FRAC_SHIFT) & SCB_SCBCLK_DIV_FRAC_MASK);
 148:Generated_Source\PSoC4/SCB_SCBCLK.c ****     
 149:Generated_Source\PSoC4/SCB_SCBCLK.c **** #else
 150:Generated_Source\PSoC4/SCB_SCBCLK.c ****     /* get all but integer divider bits */
 151:Generated_Source\PSoC4/SCB_SCBCLK.c ****     maskVal = SCB_SCBCLK_DIV_REG & (uint32)(~(uint32)SCB_SCBCLK__DIVIDER_MASK);
ARM GAS  C:\Users\Zoltan\AppData\Local\Temp\ccf4sbGK.s 			page 6


 152:Generated_Source\PSoC4/SCB_SCBCLK.c ****     /* combine mask and new divider val into 32-bit value */
 153:Generated_Source\PSoC4/SCB_SCBCLK.c ****     regVal = clkDivider | maskVal;
 154:Generated_Source\PSoC4/SCB_SCBCLK.c ****     
 155:Generated_Source\PSoC4/SCB_SCBCLK.c **** #endif /* SCB_SCBCLK__FRAC_MASK || CYREG_PERI_DIV_CMD */
 156:Generated_Source\PSoC4/SCB_SCBCLK.c **** 
 157:Generated_Source\PSoC4/SCB_SCBCLK.c ****     SCB_SCBCLK_DIV_REG = regVal;
 158:Generated_Source\PSoC4/SCB_SCBCLK.c **** }
 130              		.loc 1 158 0
 131              		@ sp needed
 142:Generated_Source\PSoC4/SCB_SCBCLK.c ****                     (uint32)(~(uint32)(SCB_SCBCLK_DIV_INT_MASK | SCB_SCBCLK_DIV_FRAC_MASK)); 
 132              		.loc 1 142 0
 133 0012 2568     		ldr	r5, [r4]
 134              	.LVL5:
 145:Generated_Source\PSoC4/SCB_SCBCLK.c ****         ((uint32)((uint32)clkDivider <<  SCB_SCBCLK_DIV_INT_SHIFT) & SCB_SCBCLK_DIV_INT_MASK) |
 135              		.loc 1 145 0
 136 0014 2B40     		ands	r3, r5
 137              	.LVL6:
 138 0016 1843     		orrs	r0, r3
 139              	.LVL7:
 157:Generated_Source\PSoC4/SCB_SCBCLK.c **** }
 140              		.loc 1 157 0
 141 0018 2060     		str	r0, [r4]
 142              		.loc 1 158 0
 143 001a 30BD     		pop	{r4, r5, pc}
 144              	.L14:
 145              		.align	2
 146              	.L13:
 147 001c 00030140 		.word	1073808128
 148              		.cfi_endproc
 149              	.LFE2:
 150              		.size	SCB_SCBCLK_SetFractionalDividerRegister, .-SCB_SCBCLK_SetFractionalDividerRegister
 151              		.section	.text.SCB_SCBCLK_GetDividerRegister,"ax",%progbits
 152              		.align	1
 153              		.global	SCB_SCBCLK_GetDividerRegister
 154              		.code	16
 155              		.thumb_func
 156              		.type	SCB_SCBCLK_GetDividerRegister, %function
 157              	SCB_SCBCLK_GetDividerRegister:
 158              	.LFB3:
 159:Generated_Source\PSoC4/SCB_SCBCLK.c **** 
 160:Generated_Source\PSoC4/SCB_SCBCLK.c **** 
 161:Generated_Source\PSoC4/SCB_SCBCLK.c **** /*******************************************************************************
 162:Generated_Source\PSoC4/SCB_SCBCLK.c **** * Function Name: SCB_SCBCLK_GetDividerRegister
 163:Generated_Source\PSoC4/SCB_SCBCLK.c **** ********************************************************************************
 164:Generated_Source\PSoC4/SCB_SCBCLK.c **** *
 165:Generated_Source\PSoC4/SCB_SCBCLK.c **** * Summary:
 166:Generated_Source\PSoC4/SCB_SCBCLK.c **** *  Gets the clock divider register value.
 167:Generated_Source\PSoC4/SCB_SCBCLK.c **** *
 168:Generated_Source\PSoC4/SCB_SCBCLK.c **** * Parameters:
 169:Generated_Source\PSoC4/SCB_SCBCLK.c **** *  None
 170:Generated_Source\PSoC4/SCB_SCBCLK.c **** *
 171:Generated_Source\PSoC4/SCB_SCBCLK.c **** * Returns:
 172:Generated_Source\PSoC4/SCB_SCBCLK.c **** *  Divide value of the clock minus 1. For example, if the clock is set to
 173:Generated_Source\PSoC4/SCB_SCBCLK.c **** *  divide by 2, the return value will be 1.
 174:Generated_Source\PSoC4/SCB_SCBCLK.c **** *
 175:Generated_Source\PSoC4/SCB_SCBCLK.c **** *******************************************************************************/
 176:Generated_Source\PSoC4/SCB_SCBCLK.c **** uint16 SCB_SCBCLK_GetDividerRegister(void)
ARM GAS  C:\Users\Zoltan\AppData\Local\Temp\ccf4sbGK.s 			page 7


 177:Generated_Source\PSoC4/SCB_SCBCLK.c **** {
 159              		.loc 1 177 0
 160              		.cfi_startproc
 161              		@ args = 0, pretend = 0, frame = 0
 162              		@ frame_needed = 0, uses_anonymous_args = 0
 163              		@ link register save eliminated.
 178:Generated_Source\PSoC4/SCB_SCBCLK.c ****     return (uint16)((SCB_SCBCLK_DIV_REG & SCB_SCBCLK_DIV_INT_MASK)
 164              		.loc 1 178 0
 165 0000 024B     		ldr	r3, .L16
 179:Generated_Source\PSoC4/SCB_SCBCLK.c ****         >> SCB_SCBCLK_DIV_INT_SHIFT);
 180:Generated_Source\PSoC4/SCB_SCBCLK.c **** }
 166              		.loc 1 180 0
 167              		@ sp needed
 178:Generated_Source\PSoC4/SCB_SCBCLK.c ****     return (uint16)((SCB_SCBCLK_DIV_REG & SCB_SCBCLK_DIV_INT_MASK)
 168              		.loc 1 178 0
 169 0002 1868     		ldr	r0, [r3]
 170 0004 000A     		lsrs	r0, r0, #8
 171 0006 80B2     		uxth	r0, r0
 172              		.loc 1 180 0
 173 0008 7047     		bx	lr
 174              	.L17:
 175 000a C046     		.align	2
 176              	.L16:
 177 000c 00030140 		.word	1073808128
 178              		.cfi_endproc
 179              	.LFE3:
 180              		.size	SCB_SCBCLK_GetDividerRegister, .-SCB_SCBCLK_GetDividerRegister
 181              		.section	.text.SCB_SCBCLK_GetFractionalDividerRegister,"ax",%progbits
 182              		.align	1
 183              		.global	SCB_SCBCLK_GetFractionalDividerRegister
 184              		.code	16
 185              		.thumb_func
 186              		.type	SCB_SCBCLK_GetFractionalDividerRegister, %function
 187              	SCB_SCBCLK_GetFractionalDividerRegister:
 188              	.LFB4:
 181:Generated_Source\PSoC4/SCB_SCBCLK.c **** 
 182:Generated_Source\PSoC4/SCB_SCBCLK.c **** 
 183:Generated_Source\PSoC4/SCB_SCBCLK.c **** /*******************************************************************************
 184:Generated_Source\PSoC4/SCB_SCBCLK.c **** * Function Name: SCB_SCBCLK_GetFractionalDividerRegister
 185:Generated_Source\PSoC4/SCB_SCBCLK.c **** ********************************************************************************
 186:Generated_Source\PSoC4/SCB_SCBCLK.c **** *
 187:Generated_Source\PSoC4/SCB_SCBCLK.c **** * Summary:
 188:Generated_Source\PSoC4/SCB_SCBCLK.c **** *  Gets the clock fractional divider register value.
 189:Generated_Source\PSoC4/SCB_SCBCLK.c **** *
 190:Generated_Source\PSoC4/SCB_SCBCLK.c **** * Parameters:
 191:Generated_Source\PSoC4/SCB_SCBCLK.c **** *  None
 192:Generated_Source\PSoC4/SCB_SCBCLK.c **** *
 193:Generated_Source\PSoC4/SCB_SCBCLK.c **** * Returns:
 194:Generated_Source\PSoC4/SCB_SCBCLK.c **** *  Fractional Divide value of the clock
 195:Generated_Source\PSoC4/SCB_SCBCLK.c **** *  0 if the fractional divider is not in use.
 196:Generated_Source\PSoC4/SCB_SCBCLK.c **** *
 197:Generated_Source\PSoC4/SCB_SCBCLK.c **** *******************************************************************************/
 198:Generated_Source\PSoC4/SCB_SCBCLK.c **** uint8 SCB_SCBCLK_GetFractionalDividerRegister(void)
 199:Generated_Source\PSoC4/SCB_SCBCLK.c **** {
 189              		.loc 1 199 0
 190              		.cfi_startproc
 191              		@ args = 0, pretend = 0, frame = 0
ARM GAS  C:\Users\Zoltan\AppData\Local\Temp\ccf4sbGK.s 			page 8


 192              		@ frame_needed = 0, uses_anonymous_args = 0
 193              		@ link register save eliminated.
 200:Generated_Source\PSoC4/SCB_SCBCLK.c **** #if defined (SCB_SCBCLK__FRAC_MASK)
 201:Generated_Source\PSoC4/SCB_SCBCLK.c ****     /* return fractional divider bits */
 202:Generated_Source\PSoC4/SCB_SCBCLK.c ****     return (uint8)((SCB_SCBCLK_DIV_REG & SCB_SCBCLK_DIV_FRAC_MASK)
 203:Generated_Source\PSoC4/SCB_SCBCLK.c ****         >> SCB_SCBCLK_DIV_FRAC_SHIFT);
 204:Generated_Source\PSoC4/SCB_SCBCLK.c **** #else
 205:Generated_Source\PSoC4/SCB_SCBCLK.c ****     return 0u;
 206:Generated_Source\PSoC4/SCB_SCBCLK.c **** #endif /* SCB_SCBCLK__FRAC_MASK */
 207:Generated_Source\PSoC4/SCB_SCBCLK.c **** }
 194              		.loc 1 207 0
 195 0000 0020     		movs	r0, #0
 196              		@ sp needed
 197 0002 7047     		bx	lr
 198              		.cfi_endproc
 199              	.LFE4:
 200              		.size	SCB_SCBCLK_GetFractionalDividerRegister, .-SCB_SCBCLK_GetFractionalDividerRegister
 201              		.text
 202              	.Letext0:
 203              		.file 2 "Generated_Source\\PSoC4/cytypes.h"
